:020000040000fa
:080000000002040000000000f2
:020000040000fa
:10040000efe32300007f24000001880000000000cb
:100410000c000700808a2f00010020001100070057
:10042000000020000000e000020032000000020096
:1004300000000000ee210200010000000040da0090
:100440000000fe004440a90080a821000000e00058
:100450000300320000002000a00188004440a800f2
:100460000000060091018800800078000000eb0089
:1004700015003700e280400032a0b4009101ba00bc
:10048000e280400032a0b4009102ba00e280400055
:1004900032a0b4000002eb00472bde00f507b200eb
:1004a000602ce10004003a000059eb008301e900f0
:1004b000fdff3e00040037006128e100010032002a
:1004c0000082eb00040007001101ba000200e00006
:1004d000e8ff3a00000006003159ba008301e90044
:1004e0000c0032002159ba008301e90008003200f3
:1004f0000400e00003003a00e280400032a0b400b3
:10050000f5ff370011d9ba008301e900faff3a007c
:100510008100e800e180400032a0b4000000060045
:1005200088270400010000003e22040001000000b2
:10053000b29b040000000000cc9f040000000000fb
:1005400032a704000000000066c2040000000000a2
:10055000a8b7040000000000a6bc040000000000d2
:10056000b4be040000000000be150400010000003d
:100570005217040001000000dcaa04000000000083
:10058000aaad04000000000032b104000000000029
:10059000c2b40400000000005a2004000100000062
:1005a000f01e040001000000841f04000100000090
:1005b0004e88040000000000828b04000000000050
:1005c000da94040000000000ae9204000000000075
:1005d0001c8e0400000000008e9704000000000044
:1005e0003c2604000100000082e704000000000037
:1005f0006819040001000000e01b04000100000075
:10060000d8cf04000000000054d204000000000015
:10061000e8d4040000000000b2d60400000000008e
:100620001ad90400000000003a3304000100000061
:1006300058e40400000000000a0504000000000067
:10064000fc05040000000000541904000000000034
:100650005019040000000000000004000000000029
:100660003200f80091018800023b88000008bb00be
:100670000500fc0051052000313b8800a10a200044
:10068000313b880061e7a800000000000000000086
:100690003200f900000006000400a100010037004c
:1006a0000400a0003200f80091018800110024002d
:1006b000013b8800f10f20003208bb000400a700b6
:1006c000b20078000198bb008301e900faff3a000c
:1006d000680151000400a700680151006800500043
:1006e0001208bb00e2ff3700f30f20003200f800d1
:1006f0009101880031002400013b88000208bb0002
:100700000388bb00daff37003200f800003b8800a6
:10071000d7ff370080017800000178003140780071
:10072000005978000004e000fcff3a000300780064
:100730000000060080007800010037000000e8009b
:100740001004e000fdff3a00010050000000060028
:10075000ec874700889fbe008a9fbe008c9fbe002a
:100760008e1f7800f0b79f0081bf9f008204780041
:1007700000047800010037000804e80018477800fa
:100780000e00fb00d80107000000e000faff3a006d
:10079000d0c2b300804f57000500320000c0e9000e
:1007a000804f5700020032000047780001003700f8
:1007b0000804e8000900e00045003500e18f54001e
:1007c0004300320040022000808f540040003c0073
:1007d0000900e0000e003400f08f54001a003a00c7
:1007e00000c3b300984f100016003a0098409000e4
:1007f00080c7b30080cf50000300320080c5b30033
:1008000080cf50000f003a000884e8000e00370047
:10081000a900200000c3b300984f10000a003a005e
:100820009840900080c7b30080cf50000400320091
:100830008900200080c5b30080cf500002003a003c
:100840000884e800090120000805780000c3b3000f
:10085000010037000a05e8009a4f1000fdff320042
:100860008a0578006066b8000e0037009073230098
:1008700000425200c4ef9f006149b9000c00be0065
:10088000931607004fea97000401fb00cf91de00aa
:100890008b05e800ccb79f00ddb79f000006410044
:1008a000818649001b00fb0097010700800078004b
:1008b00009017800907323009a0107000002780074
:1008c0000000e000e9ff3a008b0f540006003a00f8
:1008d0000fb897000000e00029003200ffb0970039
:1008e00001087800260037008a80550040712300f7
:1008f00060c07c000000fb00008050001600330048
:100900004240a9000f003c004fe997000200fb00a5
:10091000cf80de000000560081805e00800f560010
:10092000818f5e00070039006149b9009416070005
:100930004fb19700dfb19700820f5000838f5800ae
:100940000500320020022000c0d189000086eb00a3
:100950008086eb0005003700d0c2b300804f5700ff
:1009600002003a0060061600e0861e008fb997006c
:100970000300e000030032008b097800010037001b
:100980006066b8000c00be004f0778004f06be003e
:100990004f05be004f04be00cf00b10000000600ae
:1009a000889fbe0081047800114478000804e000ac
:1009b00009003a000c003700800178000901780036
:1009c000d24078000104e00007003200d3cf1000cd
:1009d000fbff32000000e8008800fb000400070075
:1009e0000000e000f4ff3a004f04be0000000600e3
:1009f000040037000204e00001003a000000050096
:100a00000000e80010417800814f5100f9ff3a00e2
:100a100000000600881f78000204780041000700eb
:100a2000080040004f047800000006000000fa00b3
:100a3000881f7800000478003fb99700ea815700ca
:100a400080007800a0502000460107008000780058
:100a50000000e000020035000040eb0000f47800e8
:100a6000010078004f0478000080fa0000000600c2
:100a7000800178008002eb00010037008459780083
:100a800005035100828f52000900320065c27800d0
:100a90008502e8000404e000f8ff3a0083007800d3
:100aa000068141008058eb00828f5000fdff3a0024
:100ab00000000600889fbe000004be0000d3810035
:100ac0000000e00001003200000001000800e0002a
:100ad00001003a00f8d281000800be00da010700e8
:100ae000000444001804e00004003a0020a623009b
:100af000f0d289000004eb00070037000800be00b8
:100b0000e3010700000044001004e000010032008f
:100b10000058eb00f0d28900080078004f04be00b6
:100b2000000006008001eb000200370061f0790050
:100b30008301e800828f5100fcff3a0000000600ac
:100b4000e08d81000000e0000100320000000100a3
:100b5000e01b230000000600881f780000047800d6
:100b600040c881000000e0000100320000000100e8
:100b7000e42f23008801780022a32300a101200094
:100b8000a0902300d4010700a09023004f04780018
:100b9000000006008001eb00020037008171780040
:100ba0008301e800828f5100fcff3a00000006003c
:100bb000040037000204e0000a0032000000e800f0
:100bc0008100e80010417800914f5100f9ff320098
:100bd0000081eb0010407800914f50000400390074
:100be000020037000001eb00010037001200200076
:100bf0000200780000000600900178000200e0008a
:100c000002003a000308e900050037008080eb008d
:100c10001304e000020032000308e8009300fb0028
:100c200001007800000006000200fa00f0bf9f00fb
:100c30003fb99700ea8157008f80e900c05f20002c
:100c4000140207000080fa0000000600800178000e
:100c500000017800010037000201e8001204e00002
:100c6000fdff3a00020037000201e8008100e800c1
:100c700011407800004978000004e000faff3a00d3
:100c800003007800000006001000fa00889fbe00f4
:100c90008a9fbe008c1f780000067800c00190007b
:100ca000c2002000110009008201d8000001780074
:100cb0006c10b9008081510002003b00ec814100c2
:100cc0000201e9000200e00006003d0000002800eb
:100cd00002005000dc009000808f500008003d00b2
:100ce0007a0037000200e00005003200f0ff270024
:100cf00002005000dc009000810f500073003500ae
:100d00005c0490000804410083007800080078002b
:100d1000a80207000000e900cf80de000101780092
:100d20008201780004182500150020006033b80007
:100d3000ca170700f0b79f0081bf9f0092bf9f00b6
:100d4000a3bf9f00cfc4de00090578008a057800a4
:100d500004382300151e20006033b8000800be00d0
:100d60000a01be00bd1707007fb297008fba970037
:100d70001fbb9700afbb9700040440008584480068
:100d800006054900878549003c009000cf80de00c1
:100d90000101780082017800041825001500200068
:100da0006033b800ad17070008044000898448008c
:100db0000a0549008b854900b8b79f00c9b79f0055
:100dc000dab79f00ebb79f002c009000cf80de00c9
:100dd000010178008201780004e120000500200074
:100de0006033b8009d1707000205be000004be0076
:100df0001c009000cf80de000101780082017800a5
:100e0000c4032000050020006033b80093170700da
:100e100008044000898448000a0549008b85490080
:100e20001c007800cf80de0001017800820178008c
:100e300008044000898448000a0549008b85490060
:100e40003fb09700cfb097005fb19700efb1970028
:100e50000004440081844c0002054d0083854d0050
:100e60000800be000a01be00aa1707006011b80002
:100e7000e41707000000e000140035000805be007c
:100e800000e82700a13a28000004540081845c0097
:100e90008c0890000801be000c0078006102070079
:100ea0000c0890000000e0000400340000c9280095
:100eb000a13a28000004550081845d00d402070097
:100ec0000000540081805c00020037000080eb00cd
:100ed0008080eb004f0678004f05be004f04be0037
:100ee0000080fa00000006006900e10004003500ff
:100ef0006d00e100030034000002b1000100320087
:100f00000000050010000500800078001104b10009
:100f1000030035009101b10001003c000050a00029
:100f2000000006008001eb00040037008301e800a8
:100f300090cf1000040032000000e800828f5100c2
:100f4000faff3a000000eb0000000600b0d181007b
:100f50000000e000010032000000010080a3230037
:100f6000000006006200fa00889fbe008a9fbe0053
:100f70000004be00020578008300780060f92f00ad
:100f80000f004000f502070088979f0099979f0087
:100f90000000eb00a09f9f009a4578000b80fb00ab
:100fa0000000ea00cf04de0050c2b30080cf55003d
:100fb0000200320009047800010037000904e9004a
:100fc0000800e0000b0034001f9097000801780033
:100fd0008a0078008f9197000300010090979f008e
:100fe0000000e000930032002f98970000004400ba
:100ff000a09f9f000905450050c2b30080cf550057
:10100000040032000b04e000e3ff3a002f98970041
:10101000890037000000eb00809f9f00f0979f0041
:10102000e0979f00d0979f00c0979f00b0979f00c8
:10103000c09f9f00090037000097230000805000e8
:101040000000400041962300e10078004f9897008f
:1010500001007000c09f9f000a05e8001a44780054
:101060008800fb000097230061fe070080007800e5
:101070000000e000f0ff3a00a0c2b300804f54002f
:101080000e003a00bf8897000180e900b08f9f00f2
:1010900010007800b09f9f000000e00005003d00b8
:1010a0000000ea00b09f9f004f9897000020a0002a
:1010b000c09f9f000a05e80010003700b19f9f0005
:1010c00003fd2f00f4ff2700080037003f9897002a
:1010d000840f5000040032006a00b9000000410093
:1010e00003004000b09f9f000a05e8001a01fb00c2
:1010f00003004100e90f5000f4ff3600e0c2b300e6
:101100009a4f1000040032000080eb00909f9f0077
:101110008a0478001c0037008a04e800a0c2b300eb
:10112000994f100007003a00bf8897000180e9003e
:10113000b08f9f0010007800909f9f008a84e80085
:10114000110037000000eb00909f9f0003fd2f006f
:10115000f4ff2700080037001f989700840f500005
:10116000040032006a00b9000000410003004000a2
:10117000909f9f008904e8001901fb0003004100d3
:10118000e90f5000f4ff3600194478008800fb0096
:10119000c09f230016fe07000000e00002003a0096
:1011a00000447800010037008904e800a87f9f0010
:1011b00080c6b300804f540004003a00994f1400d9
:1011c0000a003a006640500006003700c0c6b3006f
:1011d000804f540005003a00994f140003003a0074
:1011e00065404000a07f9f008904e8000905e800f1
:1011f000c8fb2f000f04440060f92f000f004000cf
:101200008085e80088017800194178008000780026
:101210000b007800200307000000e00005003a0002
:10122000880078000b007800510207000000e00001
:1012300059ff3d000080eb004f05be004f04be008b
:101240000080fa0000000600000278000b00370062
:1012500001017800924178000304e00002003a00a6
:10126000040050000000060083cf5200020032004c
:101270000201e800f7ff37000000e8009042780024
:101280000504e000f2ff3a000400500000000600f0
:10129000000278000700370083cf52000a003200b6
:1012a0000201e800924178000304e000faff3a00ee
:1012b0000000e800904278000504e00004003200dd
:1012c00001017800f7ff370004005000000006001d
:1012d00004005000000006008f02b000889fbe008e
:1012e0008a9fbe008c9fbe008e1f7800800578000c
:1012f0000106780082047800f3b79f0084bf9f0046
:10130000020078000bfd0700000578000b0778004d
:101310008006eb004f0037008d06e9000d80460087
:10132000c2fc2f000f0141008280e800e104780038
:10133000e800410061057800994078000180fb00d9
:101340000000ea004f04de008884440008055500d0
:1013500050c2b30080cf500002003a000a00e00003
:1013600009003a00880f5600430039008880540075
:10137000080178000b007800eafd07008885450029
:1013800008065600330037001944780050c4b300f3
:10139000804f5400050032006a404000804f5400e6
:1013a000020032000044eb00010037008904e8002d
:1013b000a4fd2f008f0242006e0252000f02420075
:1013c00099417800084178008fb897007fb0970066
:1013d0002d050700800178000804e00001003200bc
:1013e0000a05e9008904e8000a05e9006fa19700f1
:1013f0000200e00009003400820f56001e00390090
:10140000830078000b007800c6fd07006fa09700ee
:1014100080854500000656000e0037000a00e000f7
:101420000a003200e28f560008003e000d804600a0
:10143000c4fc2f000f0242008480e800893078004d
:10144000e80042008a3078008d06e8000205ea00d4
:10145000830478000a00e000b7ff3a000d00e000c6
:10146000adff3a000c00e000030032008d4d780023
:101470000e805500010037000000eb004f07780098
:101480004f06be004f05be004f04be008f02b100e4
:10149000000006001200fa00889fbe008a9fbe006e
:1014a0008c1f780002047800a0b79f00b1b79f009e
:1014b0008300780078805700a80107000000eb0047
:1014c000e0b79f00d8b79f0000067800dfb4970010
:1014d000194578000a80fb000000ea00cf05de0015
:1014e0000a00fb0080fe07000000e0001a00320046
:1014f0006fb097000000e800e0b79f003fb0970092
:10150000120020008000eb00afb197000300010043
:101510000004780074fe0700000178000000e0007d
:10152000f3ff3a006fb09700e10f4400070032006c
:101530000000e900e0b79f003fb097008800780006
:10154000afb1970003000100230037000000e9005d
:10155000e0b79f002000370050c2b300804f550015
:10156000020032000b047800190037000b04e90078
:10157000170037006fb097000000e800e0b79f0049
:101580003fb09700120020008000eb00afb1970041
:1015900003000100800078001900fb00808f5000dc
:1015a0000a003200e18f40007c0032006fb09700eb
:1015b0000000e900e0b79f003fb097000001eb009a
:1015c000afb1970003000100740037008904e80000
:1015d0000804e900e7ff3b005fb09700808045000a
:1015e000d1b79f0050c2b300804f550003003200b6
:1015f0000a04e000b5ff3a0068003700a2c2b30059
:101600000040eb00914f110003003a000100e80098
:10161000d0b79f0002407800a0f79f000000eb00c9
:1016200080bf9f0003fd2f00f4ff27000a00370052
:101630000fb89700840f5000040032006a00b90010
:10164000000041000300400080bf9f005fb0970092
:101650000000e800d0b79f00dfb49700194478007d
:101660000801fb0003004100e90f5000f0ff3600c5
:1016700082007800009c2300ddfc07000000e000f1
:1016800002003a0000447800020037000900e80038
:10169000d0b79f00b8f79f0080c6b300804f5400ba
:1016a00005003a00dfb09700914f14000c003a009b
:1016b0006640500007003700c0c6b300804f54009a
:1016c00007003a00dfb09700914f140004003a0081
:1016d00065404000b0f79f000100e800d0b79f00d0
:1016e0005fb097009000fb00709c2300c0fc0700d7
:1016f0000000e00019003a006fb097000000e80019
:10170000e0b79f003fb09700120020008000eb0080
:10171000afb197000300010000047800f2fd07005c
:10172000000178000000e000f3ff3a006fb097007e
:10173000e10f4400070032000000e900e0b79f001d
:101740003fb0970088007800afb197000300010018
:10175000020037000000e900e0b79f007c805700de
:10176000380607000000e00003003c000c00e00029
:1017700009003200090037004ff097000004e00034
:10178000010032000c06e8005fb097000000e8009e
:10179000d0b79f004dff3700000678000c0078009e
:1017a0004f0678004f05be004f04be000080fa00cf
:1017b0000000060080017800010278000000e000cf
:1017c000060034000000e90042002000110009007a
:1017d0000200d80000017800080037000001eb008b
:1017e000e40f400005003c006400100042002000af
:1017f000110009000200d8000001e80063806100c8
:1018000003003a00618623000300e00001003a0073
:10181000e187230004004200010040001000410065
:10182000000006000800fa00889fbe008a9fbe00e4
:101830008c1f7800000678000104780000e827007b
:10184000a13a28000201400083814800f2b79f00be
:1018500083bf9f000c00e00005003a0080ca8100b1
:10186000ec9323000000e0000100320000000100c2
:10187000080e98007fb097008fb8970090bf9f0028
:10188000a1bf9f0002182500130020001fb8970079
:10189000afb89700ba1207000005be006100400013
:1018a000e080480072002000030020005715070068
:1018b00060069800d2162000030020000a00be0037
:1018c0006115070000047800010037000804e900f2
:1018d0008000eb0008007800b6ff07006101b90046
:1018e000d016200000c0b9000200400083804800ec
:1018f000800f5500818f5d00f4ff35000001550019
:1019000081815d00580698000203780072069800f5
:101910006300640003003a00608623000800e000d2
:1019200001003a00e087230076024000c500200055
:101930008502e90024007800cf80de00800f51008e
:10194000818f5900faff3500450698001400900079
:10195000000053000000e80030069800021825003f
:10196000130020001fb89700afb897004515070077
:101970000004be0002e120000300200080120700e6
:101980002006980002e12000030020000800be00ad
:101990003c1507000004be00c20320000300200025
:1019a0007712070010069800c203200003002000f1
:1019b0000800be0033150700000e78000c089000e8
:1019c0000000e0000c003d000c007800410607001c
:1019d000000e98000000e0000700340000e1200045
:1019e000010020007fb197008fb9970002004000ee
:1019f00083804800a1ff37000c0078004f06780074
:101a00004f05be004f04be000080fa000000060033
:101a10000400fa00889fbe0090cf81000000e00023
:101a20000100320000000100e08d81000000e000b4
:101a3000010032000000010070cf81000000e000d2
:101a40000100320000000100318f810080cf810051
:101a5000810f50002f0032001104e00002003a0014
:101a6000a0060700308f8900668157002100200002
:101a7000308f8100f706070000047800a2002000e4
:101a8000e8805700130707000001be0050cf89000f
:101a900061cf89004fb89700880050005fb8970069
:101aa000808f500009003a00c0ae2f00f1ff2f00d8
:101ab000800f5100818f5900040034003051200004
:101ac000800f5100e08f5900030034006000b8001f
:101ad00050cf890061cf890058cf810069cf810044
:101ae00042062000030020000800be00d6140700b4
:101af0008202200003002000f511070008005000ba
:101b00008980580050cf890061cf8900308f8100d3
:101b100080cf890042fc2f00f3ff2f0050cf8100bf
:101b200061cf8100ea1107004f04be000080fa0077
:101b300000000600889fbe001004be00b4ff07002e
:101b400008014000898148008080eb000000eb0024
:101b500034ff07004f04be00000006000200fa0038
:101b6000f1bf9f00010878000080fa000000060025
:101b70000400fa00889fbe008a9fbe008c1f780078
:101b8000000478000106780070089000f8009000ca
:101b90000100500088089000010050009808900053
:101ba00001005000a808900001005000b808900003
:101bb00001005000c808900081055000000222007a
:101bc00090bf9f0000032300a0bf9f00081090005b
:101bd0000028a30018003a000b00e00016003400b3
:101be0008b04780009057800e28f5400020036006b
:101bf0002a002000020037000900e0000b0034003a
:101c000058009000c80190000a017800ee8057004b
:101c100003000100500498000000e000960032002c
:101c20006808900000004500600c98008a84540009
:101c30004240a900ebff3c00780190000200e00068
:101c40000b00340058009000c80190008c00780010
:101c500003000100500498000000e00086003200fc
:101c600068089000f800900001004000600c9800a7
:101c7000880c90000900e000150034000905780088
:101c8000e28f5400020036002a00200002003700d4
:101c90000900e0000b00340058009000c8019000db
:101ca0000a017800ec8057000300010050049800fe
:101cb0000000e0007000320068089000000045005d
:101cc000600c98008a8454004240a900ebff3c005d
:101cd000180990000200e0000b003400e8009000ba
:101ce00058009000c80190000300010050049800c3
:101cf0000000e00060003200680890009808900042
:101d000001004000600c9800a80c90000900e00061
:101d10001500340009057800e28f540002003600f7
:101d20002a002000020037000900e0000b00340008
:101d300058009000c80190000a017800ec8057001c
:101d400003000100500498000000e0004a00320047
:101d50006808900000004500600c98008a845400d8
:101d60004240a900ebff3c00380990000200e0006f
:101d70000d003400e80090001808900080804000ba
:101d800058009000c8019000030001005004980022
:101d90000000e0003800320068089000b8089000a9
:101da00001004000600c9800c80c90000900e000a1
:101db0001500340009057800e28f54000200360057
:101dc0002a002000020037000900e0000b00340068
:101dd00058009000c80190000a017800ec8057007c
:101de00003000100500498000000e00022003200cf
:101df0006808900000004500600c98008a84540038
:101e00004240a900ebff3c00081090000028a3000e
:101e10001b0032000b00e000190034008b04780036
:101e200009057800e28f5400020036002a002000e5
:101e3000020037000900e0000b0034005800900059
:101e4000c80190000a017800ee80570003000100ed
:101e5000500498000000e00007003200680890007d
:101e600000004500600c98008a8454004240a9009c
:101e700003003400eaff37000080eb000100370068
:101e80000000eb004f0678004f05be004f04be0077
:101e90000080fa0000000600889fbe008a1f7800bc
:101ea000000478000102780082447800030578007d
:101eb00070c6b300804f510021003c0000c0e90013
:101ec000804f5100de003d0072405000804f5100b5
:101ed0004b0132000d003c006c405000804f51001f
:101ee0005e013c0000c0e900804f5100d4003d007d
:101ef00050c2b300804f5100550132007c40400079
:101f0000804f510055013a00cd00370010c6b30094
:101f1000804f5100ca00320004003c00694050006c
:101f2000804f51004d013a007200370030c6b300b7
:101f3000804f5100180032000040e80009003700cf
:101f400000c7b300804f51001e01320008003c0062
:101f500000c0e900804f5100e400320065003c0001
:101f60006540500080cf54003c013a000f0037001c
:101f700050c7b300804f51005e0032006340400004
:101f8000804f51005b00320065405000804f51008f
:101f900032013a001a0137009180e900010a780005
:101fa000780090009171780032013700a8609000ad
:101fb000c0c6b30080cf50000a003a0094007800f9
:101fc00064805000000a78001000be004f89de00d7
:101fd000cf91de000002be00020378008203780089
:101fe0001300370010c7b30080cf50000300320049
:101ff000a0c6b30080cf500006003a0094007800dd
:1020000068805000000a78003002be002003be0045
:10201000070037001480e900000a780010007800fb
:1020200000027800cfa2de00050378008603780066
:10203000049cbe000694be00a860900080c6b30059
:1020400080cf50000e00320020c6b30080cf500079
:1020500005003a000400fb00cf80de00010178009b
:10206000820178000a00370040c7b30080cf5000db
:10207000030032006640400080cf500006003a0066
:1020800004007800cf80de00010178008201780032
:10209000009cbe000294be003800be002801be00b5
:1020a000e00f5000e08f5800e00f5900e08f59001a
:1020b00003003d0078009000d1c2b3000a00370051
:1020c000081090000018a300030032007800900070
:1020d000b1c2b300040037000008a300530032006f
:1020e0007800900001c2b300017578000000e8009c
:1020f0004d003700a8609000c0c6b30080cf5000ec
:1021000006003a009400780064805000000a7800cd
:102110001002be006033b8001300370010c7b300d0
:1021200080cf500003003200a0c6b30080cf500023
:1021300006003a009400780068805000000a780099
:102140003002be002003be00070037001480e90003
:10215000000a7800100078000002780005002000d6
:102160000600200007002000049cbe000694be006c
:10217000a860900080c6b30080cf50000e003200ef
:1021800020c6b30080cf500005003a000480fb0059
:102190000100200002002000030020000a00370098
:1021a00040c7b30080cf50000300320066404000bb
:1021b00080cf500006003a000400780001002000a3
:1021c0000200200003002000009cbe000294be001c
:1021d000081090000038a300140032003800be0040
:1021e0002801be00e00f5000e08f5800e00f5900ba
:1021f000e08f59000d00320080c7b30080cf54003b
:102200000300320080c5b30080cf540007003a00bd
:102210007800900001c3b300017578008000e800e9
:1022200009f578000080e8007004980078009000bc
:102230000000450060049800894078006d00370078
:10224000a8609000c0c4b30080cf500006003a00e0
:102250009400780068805000000a78005001be00a9
:102260004000be00050037009400780064805000f4
:10227000000a78001000be0005130700009cbe0095
:102280000294be00380090000000e00003003d0012
:1022900078009000d1c2b3000a0037000810900007
:1022a0000018a3000300320078009000b1c2b30010
:1022b000040037000008a3000500320078009000f9
:1022c00001c2b300017578000000e80070049800b6
:1022d0007800900000004500600498008940780074
:1022e00008007800cd06070064003700a860900061
:1022f000c0c6b30080cf5000250032000a003c0069
:102300006440500080cf50002800320000c0e80038
:1023100080cf5000140032006840500080cf500041
:1023200022003a000a00370040c7b30080cf5000b7
:102330001e0032006640400080cf50001b0032007b
:102340006940500080cf500018003a000600370066
:102350001480e900000a780010007800485c9000c2
:1023600008487800450037001480e900000a78002a
:102370001002780068089000cf80de00010178002c
:1023800082017800009abe000292be003b00370036
:102390001480e900000a78001001780068089000b5
:1023a000cf80de000089be00340037001480e900d1
:1023b000000a780010007800680c90000808780087
:1023c0002e0037001180e9008008780010007800a6
:1023d000cf80de000101780082017800009cbe0001
:1023e0000294be0078009000000045006004980050
:1023f00081c7b30008007800ff0407001f00370002
:102400001480e900000a7800100078006004980049
:10241000580990000200e00002003d00c5f80700e6
:10242000090037008000eb00befa0700800078004a
:102430000000e000030032006800900000805000bf
:102440000100370058089000100c98000b0037006e
:102450007800900002757800060037007800900040
:10246000800045000904e00001003a0059c2b300b1
:10247000894878000000e800700498000000eb0034
:102480004f0578004f04be0000000600889fbe0084
:102490008a9fbe008005780001047800020578005c
:1024a0008304780084407800050178000800e0008b
:1024b00001003d000004eb00f0c4b30080cf5000e9
:1024c00006003a0022109000090178008800780088
:1024d000600407001900e0000e003c008a0c780040
:1024e0000a8145000049eb00a300200006003700e8
:1024f000110009000304d8008000fd0004c3b300ec
:1025000004614000010478000a05e900f8ff3b007f
:10251000020078004f05be004f04be000000060018
:1025200080805000e7804000730020001100090007
:102530008300d8008000fd0000015100030141002c
:10254000110009000301d80000000600889fbe00aa
:10255000810478000204780010002000f0ff0700da
:102560000002780080017800088054003017b00025
:1025700072002000110009000200d800d0162000cf
:1025800001004000811f7800110009000200d800fe
:1025900001017800cf007800b0162000800f5400b1
:1025a00003003400e20f510004003a00100037002d
:1025b000a0162000800f540003003400e30f5100e8
:1025c00004003a000a00370090162000800f5400e3
:1025d00002003400e40f5100050032000180e900e0
:1025e000e20f500003003e008401e80001003700c4
:1025f0008081eb00030078004f04be00000006005d
:10260000881f780000047800d0ff07000000e00079
:1026100002003a000804e900030037000000e0006f
:1026200001003c000804e800080078004f0478002e
:10263000000006000200fa00889fbe008a1f780092
:102640008004780001047800a2002000e880570090
:10265000080078001f0407000002be004fb9970071
:10266000820f540035003200fac2b300924f1500b9
:1026700032003a0059009000c1762000010040006d
:10268000cf80de00800f5200818f5a00040032009c
:10269000840f5000858f58002a003d002b00370022
:1026a0000204e800a2002000e8805700080078003b
:1026b000080407000003be004fba9700840f5400bf
:1026c0001e003200944f15001c003a004900900093
:1026d0000000e8006101b900820f5300838f5b00a6
:1026e00004003200860f5100878f590015003d000d
:1026f000160037000400e800a2002000e880570020
:10270000f40307000002be004fb89700800f54008a
:102710000a003200390090006101b9000000eb00ae
:10272000820f5200838f5a0009003200840f51003b
:10273000858f590003003d00040037002000200071
:102740000300370010002000010037000080eb007c
:102750004f0578004f04be000080fa00000006001c
:102760000200fa00889fbe008a9fbe008c1f78007e
:1027700080057800010678000005eb003400370082
:102780008804e8006c8157001100200009007800df
:10279000b0030700800078000b007800a5ff070059
:1027a0000001780098407800d0c2b30080cf50007c
:1027b00004003a000200e800e10f500023003e0050
:1027c00005003700b0c2b30080cf50001f003a00b0
:1027d000e10f51001d003e006c81570021002000d8
:1027e000090078009b030700000178001040780082
:1027f000984f500004003a0092409000a0c2b300ed
:1028000080cf50001a003200820078000b00780060
:1028100088ff07000001780098407800d0c2b3001c
:1028200080cf500003003a00e10f510007003e0046
:102830000f003700b0c2b30080cf500003003a0051
:102840000200e800e10f5000090036000a05e80028
:102850001c1090006c8157008a0078007d030700ef
:10286000000478001004e000c5ff3a0068892300e6
:10287000080078004f0678004f05be004f04be00e8
:102880000080fa0000000600ea874700889fbe002b
:102890008a9fbe008c9fbe008e1f78008004780047
:1028a0008105780002467800040578000507780065
:1028b0000300fb00cf80de005002b1000180b100b8
:1028c00052052000820f5000e08f5800d0013e00da
:1028d00000600100ca013700cd013700cc0137008c
:1028e000cb013700ca013700c9013700c8013700e2
:1028f000c7013700c6013700c5013700c4013700e2
:10290000c3013700c2013700c1013700c0013700e1
:10291000bf013700be013700bd013700bc013700e1
:10292000bb013700ba013700b9013700b8013700e1
:10293000b7013700b6013700b5013700b4013700e1
:10294000b30137003d003700440037005100370025
:102950006c003700ae0137007c0037008a0037007a
:102960009400370095003700a9013700a80137000f
:10297000a7013700a1003700a5013700a4013700e7
:10298000a3013700a2013700b3003700b6003700bb
:10299000bf003700c7003700ca003700e700370024
:1029a000f5003700470137008901370098013700eb
:1029b00097013700960137009501370094013700e1
:1029c00093013700190037007600370028003700e0
:1029d000440037004f0037008d0137005f0037009b
:1029e000700037008a0137007a003700880137000d
:1029f000870137007e0037008200370084013700ee
:102a000084003700820137008a00370080013700d8
:102a10009b003700a20037007d013700c10037005e
:102a2000cc003700df00370046013700e900900096
:102a3000818040002b00900004003700e9009000e6
:102a4000818040008100e8003b0090000a0178008e
:102a5000000307000004780073013700c9009000ec
:102a6000818040008100e8006b009000f7ff370094
:102a700050c4b300804f560002003a005b0890003b
:102a8000010037000b0890000a0178008000eb007d
:102a9000c100370050c4b300804f56000a003a000e
:102aa0008b007800090078002dff07000000e80087
:102ab0000a01780031002000e602070000047800d7
:102ac0001004e00058013a00d900900042062000ae
:102ad000110009008200d8008000fd00f380400052
:102ae00001003700b90090008b0278000c4278009a
:102af0008a017800220020000e00780063fe0700a3
:102b0000d4ff370080ff2f00000a78009889230047
:102b100045013700b90090008b0278000c42780024
:102b20008a017800220020000e00780057fe07007e
:102b30000004780000c3b3009e4f10003a013a0031
:102b400070405000004f78003701370080ff2f00a1
:102b5000000a7800288a23003301370079019000a9
:102b6000e900900059009000a5fe070042062000f1
:102b7000110009000200d8000100e000daff3d006a
:102b800082804000d8ff370079019000e900900072
:102b9000590090009afe0700c17620008100400095
:102ba000db003700c9009000818040005b0090008e
:102bb000a6ff3700a9009000cbff37002900900046
:102bc0006b004000c2002000110009000200d80084
:102bd00008003700f90090008100e8008b027800bf
:102be0000c4278008a01780032002000c2ff3700d2
:102bf000c90090008100e800bbff370099009000f9
:102c0000b9ff370010002000000a7800b88a2300be
:102c1000050137008000eb0029009000eb0f500009
:102c200001003400110020000a0178001b00780028
:102c300087ff370050c4b300804f560002003a00af
:102c40000b109000010037003b0890000a0178004b
:102c50003100200050003700b0ff2f00000a78003c
:102c6000d88a2300f00037008b0278000c427800ed
:102c70008a01780022002000990078009eff37002a
:102c800010002000000a7800388b2300e60037008f
:102c900080ff2f00000a7800588b2300e2003700e5
:102ca000e90090000100e0001f003a0071002000e0
:102cb0001d00370079019000e90090000000eb0052
:102cc00021003700f906900069049000d9049000b3
:102cd0000d01780088007800090078001bfe0700cd
:102ce0000000e00006003a008d005400e78040003c
:102cf0000900e900d216200014fe07000300370087
:102d00000000e00001003c00100020008b02780071
:102d10000c4278008a0178002200200080007800b0
:102d200075ff3700e90090008b0278000c427800b4
:102d30008a017800120020006fff370079019000af
:102d4000e900900010002000f5fd070080007800e9
:102d500065ff370050c4b300804f560002003a00b0
:102d60006b089000010037001b0890000a017800f2
:102d7000110020000800370050c4b300804f5600f7
:102d800002003a007b089000010037002b089000f9
:102d90000a017800210020002e02070000047800bc
:102da000660037005900900042062000110009001b
:102db0000200d800e1b79f000100e00002003d00e2
:102dc00082804000e1b79f0050c4b300804f56009e
:102dd00035003a008b0078000900780060fe07009b
:102de000800678000081e80082bf9f001204e000a6
:102df0002d00320059049000c076200000044400e9
:102e0000cfc4de008d01e800f3b79f000a0178000f
:102e100011002000030078000e020700a20020002d
:102e20008000eb002b0207000004540081845c004a
:102e3000d0c2b3009d4f100002003a00600414009d
:102e4000e0841c00a2002000f68057000fb8970015
:102e50002002070008004000898048005fb1970009
:102e60008fb99700828f51000f0032001241780015
:102e7000ffb19700934f51000b003a00e0b79f005d
:102e800018002000010037000804e800a20020001c
:102e900003002000ec0f0700e00f5000e08f580007
:102ea000f9ff3c0001003700280020008b02780069
:102eb0000c4278008a01780008017800efb0970092
:102ec0000dff370050c4b300804f56000d003a008c
:102ed0008b0078000900780021fe07000000e80060
:102ee0000a01780041002000da01070000047800a0
:102ef000b0c3b300984f1000020032001a00e00087
:102f000008003a00d9009000c07620008080400080
:102f10008b0278000c4278008a0178004200200081
:102f2000f5fe3700b103200008007800b0f6070076
:102f30000000e00001003200080d50001a0dea0008
:102f4000390037004b1090001004e00001003a00f7
:102f5000640107000a01780021002000bd0107007c
:102f6000000478001a00e0002f00340009089000e7
:102f70000000e0002c003400a20020008000eb00e4
:102f800008007800d301070041062000808040003f
:102f900003003300b0c2b300004f780003003700d5
:102fa000d0c2b300004f78008100ea000e00e800b4
:102fb0008b0278000c4278008a01780042002000e1
:102fc00032fd07000004e9001a0de8001600370082
:102fd0000004eb00090890000000e000010034004c
:102fe000180020004b1090001004e00001003a008f
:102ff0003c0107000a0178008800780094fe370041
:1030000010002000000a7800e88b2300060037003b
:10301000034f78000040eb00104798000e04780042
:1030200020002000000d7800080078004f0778008d
:103030004f06be004f05be004f04be00af00b100fa
:1030400000000600881f7800000478000040eb00b4
:1030500000549800380090009040780090c6b3006b
:1030600080cf50002a00320013003c007140500015
:1030700080cf50002600320005003c0050c2b30053
:1030800080cf50006400320030c5b3001b00370011
:1030900030c6b30080cf50001b0032000040e80073
:1030a00080cf50001a0032006940500080cf50009d
:1030b0006e003a007300370000c7b30080cf5000a5
:1030c00007003c000040e90080cf500010003d00a8
:1030d0000040e90080cf500064003a000f00370044
:1030e00050c7b30080cf5000090032006340400059
:1030f00080cf5000060032006540500080cf500065
:1031000043003200590037008000eb005e003700ba
:10311000080078006a0507005f00370068489000e3
:103120000004e0005b003a00f8489000c0c6b3001d
:1031300080cf5000270032000a003c00644050005d
:1031400080cf50002b00320000c0e80080cf50003c
:10315000150032006840500080cf500025003a0032
:103160000a00370040c7b30080cf50002100320072
:103170006640400080cf50001e0032006940500081
:1031800080cf50001b003a00070037002800900055
:103190000080e9002004980010007800084c90009e
:1031a000084878003b003700280090000080e900c4
:1031b000200498001002780048009000cf80de00c4
:1031c0000101780082017800009abe000292be00e0
:1031d00030003700280090000080e90020049800ab
:1031e0001001780048009000cf80de000089be000a
:1031f00028003700280090000080e9002004980093
:10320000100078004804900008087800210037007a
:10321000110020001c003700480090000000e8006a
:1032200040049800180090009801780012002000d7
:103230008000eb00030001008000780050022000b5
:10324000808f50001300320048009000e18f400052
:10325000080032000000e9004004980018009000c7
:10326000980178000001eb00030001000000eb0072
:10327000090037000000e9004004980001007800d0
:10328000050037008080eb00080078006506070025
:1032900001003700100020004f04780000000600f5
:1032a00020d081004c073700881f7800a8a0230099
:1032b0001804e00004003a00009521007a07070096
:1032c00020c0b300004c7800100020004f047800ac
:1032d00000000600e6874700889fbe008a9fbe0068
:1032e0008c9fbe008e1f78008005780040d0810042
:1032f0000000e000010032000000010020d3810046
:103300000000e0000100320000000100e08d8100bb
:103310000000e0000100320000000100218f810068
:1033200030d08100810f50001b0032001104e000fa
:103330000e003a00308f81001004e00002003a00d5
:1033400068000700308f890072815700310020002b
:10335000308f8100bf000700208f89001004e0003b
:10336000020032000000e900208f8900208f8100d8
:103370006c070700000478000085eb000000e00007
:103380005100320020d081001307070028d08900a7
:10339000208f810030d089005b0090008000eb001e
:1033a00004f90700800678007b0090007800b900df
:1033b0002b0190000000410080bf9f005b00900047
:1033c000d21620000280b9006169b90000004100f6
:1033d0008180490061004000e080480072002000c8
:1033e00003002000890e07006e07400028d08100ee
:1033f000e90444000005eb00300037006406440097
:103400005b0190001c80fb00820f500029003c00f3
:10341000b84090008180fb0002007800e5f80700ca
:103420000d005000a84090008180fb008101400009
:10343000184278000404e0000f0032000e804100c2
:103440008480fb0001005000720020001100090080
:103450000200d8000100e00002003a0001007800fc
:10346000010037006780100080814100e74f520063
:1034700001003e00e78151007819b9001840900022
:103480000080fb00020040008fb89700808f500042
:103490000d0035001c467800994f560004003a0094
:1034a0000a00e00002003a001a0020000100370084
:1034b0000005eb0065044400e584440000c0eb0017
:1034c000984f1000cdff3a000a0078004f077800af
:1034d0004f06be004f05be004f04be006f00b10096
:1034e00000000600889fbe008a1f7800c0a323004a
:1034f0001004e00053003a00809a23007a0b070082
:10350000d0d189000000e00046003a00109b230063
:10351000750b0700d0d189000000e00041003200a7
:10352000000478009a972300984478000900fb0073
:10353000790707000000e00038003200094d7800ec
:103540000801780032407800404598000a05e800fc
:10355000c0972300800f550002003200020478005b
:10356000f1ff370092407800d0c2b30080cf500006
:103570000500320000c0e90080cf50000200320098
:1035800080407800010037000881e800109823008f
:1035900001487800924078000100fb0003fd2f00f5
:1035a00003004000e90f50001c003e00209823005b
:1035b00001487800924090000100fb0003004000a9
:1035c000e90f500015003e003098230001487800b4
:1035d0000284e8001800fb004f0707000000e0002d
:1035e0000b003200da972300984478000900fb00b2
:1035f000490707000000e00008003200095d78007c
:103600000804e80000982300800f5500f6ff3a00f8
:10361000809723001804e000010032000000eb0056
:10362000d0d18900d0d181000000e00002003a0032
:10363000b0cb8100d0d1890021c0b300c0a323004a
:1036400001487800d0d181004f0578004f04be00ba
:1036500000000600889fbe008a9fbe000004be00d6
:1036600082057800104578000a04e000010032006d
:103670000004e8008a00fb0008007800dcf4070082
:103680000000e00003003a000800780029f4070079
:10369000000044000900e00002003c00880d5000da
:1036a000080037001004e00003003a00800deb0032
:1036b00000047800030037008904e9000004e800f2
:1036c000ecff3700080078004f05be004f04be0035
:1036d000000006000200fa00889fbe008a9fbe001c
:1036e0008c1f7800800578000105780002067800bc
:1036f0000100e00001003a006c8557000b047800df
:10370000010037000804e800984478000900fb0035
:10371000f5f507000000e000faff3a00d0c2b30060
:1037200080cf54000500320000c0e90080cf540073
:103730000200320080447800010037000804e800ed
:103740000c0178008a0078000800780000f4070077
:103750000001be009a0f540001003a000b0d7800e2
:103760009a8f550003003a00e00f5100e08f590096
:103770000f003a00b0c2b30080cf540004003a00fa
:10378000e00f5100e08f590015003d0008003700a0
:10379000d0c2b30080cf540011003a0000002000d6
:1037a00001002800800f5100818f59000a00360067
:1037b00020022000c0d18900020020000300280060
:1037c0006b40400080cf540005003200f2ff2f0014
:1037d000f3ff27000200370060011100e0811900ab
:1037e0000200be004f0678004f05be004f04be0029
:1037f0000080fa00000006002f03b000889fbe0082
:103800008a9fbe008c9fbe008e1f78000007780044
:10381000708f2300c0b79f0080c5b30080cf5000d9
:1038200008003200628e2300c2b79f00774040003c
:1038300080cf500003003a0083002000b3b79f0000
:103840000a00370080c7b30080cf50000500320067
:10385000a4002000b4b79f0080c5b30080cf500003
:1038600002003a0005012000b5b79f003e04be00eb
:103870002e05be0040c6b30080cf500003003200ca
:103880006540400080cf50000b003a00e00f54002c
:10389000e08f5c00e00f5d00e08f5d0006003d0002
:1038a0006000b8006011b800080450008984580016
:1038b0000a0559008b855900bfb39700e88f530064
:1038c00003003200f08f530045003a000200370039
:1038d000360020000100370046002000e00f5400b1
:1038e000e08f5c00e00f5d00e08f5d0005003a00b6
:1038f0005e08900081012000a1b79f000000e00059
:10390000080032003fb197000200e90008006000a3
:10391000cfb197006340780090df9f0074012000d2
:10392000a4b79f00860278008502e90005003300f5
:103930008b05d1000a85d3008984d3000884d30085
:10394000f9ff3700089fbe000a97be00afb397008b
:103950000700e90021fc2f008f804000008240001a
:103960003fb197008202e90012003700afb3970021
:103970008703e900a7b79f0000806200cfb09700df
:10398000615278003e00be002e01be008603780022
:103990008703e900050033008381d1000281d30051
:1039a0008180d3000080d300f9ff3700009fbe0064
:1039b0000297be003e00be002e01be00e00f500088
:1039c000e08f5800e00f5900e08f5900d600340016
:1039d000afb397000700e000e4ff3c00d2003700df
:1039e000ae60900080c6b30080cf50000b00320064
:1039f00006003c000104e000080032006640500070
:103a000080cf500073003a0004003700c0c6b300f6
:103a100080cf50006f003a00310037000801780075
:103a20000800e00005003a005e08900081012000d7
:103a3000a1b79f000000e00009003200bfb197006d
:103a4000110009000381d8008000fd004fb29700eb
:103a50006440780090df9f0075012000a5b79f00ab
:103a6000bfb39700110009000781d80080017800da
:103a7000afb097000100e90022fc2f000f014100c8
:103a8000000241000c003700bfb29700110009008e
:103a90008501d80000017800afb397008703e900e3
:103aa000a7b79f000590b90000805100cfb09700e4
:103ab00061527800820178000300e00003003400c6
:103ac0002fb197000200e000efff3c0003007800f8
:103ad000cf80de0001017800820178003a003700d3
:103ae0000806be00e00f5400e08f5c0005003a00bd
:103af0005e08900083012000a3b79f000000e00053
:103b0000090032003fb297006121b9000c00be00ed
:103b1000dc0c0700cfb297006540780090df9f0073
:103b200077012000a7b79f003fb297006121b9003d
:103b30000c00be00120a07000006be00afb29700dc
:103b40000500e90027fc2f008f834300808343009a
:103b500097b79f00110037003fb197006114b9007b
:103b60000801be000c00be00b70c07000005be0037
:103b7000afb197008301e900a3b79f000801be0021
:103b8000d3090700000056001fb29700cfb297007c
:103b90006552780094b79f000a06be00e00f5600f9
:103ba000e08f5e0003003400afb397000700e00031
:103bb000e9ff3c004feade00cfa2de000c00be00b1
:103bc0000401780084017800009fbe000297be00c7
:103bd00055003700e00f5400e08f5c00e00f5d00ff
:103be000e08f5d0005003a005e0890008101200032
:103bf000a1b79f000000e0000d0032003fb1970028
:103c000002027800cfa2de00050378008603780068
:103c10000800be000a01be00860b07004fb29700e5
:103c20006440780090df9f0075012000a5b79f00d9
:103c30003fb1970002027800cfa2de0005037800b2
:103c4000860378000800be000a01be00720b070060
:103c5000009fbe000297be00afb197000300e900cd
:103c600024fc2f000f024200000642002000370013
:103c7000bfb2970005047800cfc4de0009057800c4
:103c80008a0578000802be000a03be005fa89700fc
:103c9000efa897007fa997008fb19700690b0700e5
:103ca000d0b79f00e1b79f00f2b79f0083bf9f008e
:103cb000afb397008703e900a7b79f000802be00d3
:103cc0000a03be00e50b07005faa97000000520040
:103cd000cfb29700655678005fb09700efb09700bd
:103ce0007fb197008fb99700009fbe000297be007a
:103cf0003e00be002e01be00d0af9f00e1af9f008e
:103d0000f2af9f0083b79f00e00f5000e08f580094
:103d1000e00f5900e08f590003003400afb0970066
:103d20000100e000d2ff3c003fb19700e80f5100d6
:103d300013003a000e1090000038a300100032006b
:103d4000afb19700f78f510006003e0024fc2f0012
:103d50000f0242008300420000c3b300914f1000e5
:103d600007003200afb297008502e900a5b79f00b7
:103d700000c3b30027fc2f008f83430080f37a0039
:103d8000afb1970078811100120f98006e0090007b
:103d900024fc2f000f0242008300420061f3070061
:103da0001e0990005e089000800f510006003d0043
:103db00002005000000f98000e1090000040a1007b
:103dc000001798000f0037000000e0000d003d00d4
:103dd0000e10900074006000f00f500009003a00cf
:103de0007e089000fe009000010050008e089000b8
:103df00001005000020050004240a90001003400c0
:103e0000000f98004f0778004f06be004f05be0018
:103e10004f04be002f03b100000006008f04b00065
:103e2000889fbe008a9fbe008c9fbe008e1f7800b8
:103e3000f0b79f0081f79f005001be004000be0018
:103e4000f0979f00819f9f00929f9f00a39f9f00dc
:103e500010c6b3000ff19700804f510016003200da
:103e600010c4b300804f510013003200ffb197001f
:103e7000530890000000e00003003d0060002000b7
:103e8000d00998000c0037000000e0000a003a005a
:103e900070c6b3000ff29700804f5200030032004b
:103ea00070c4b300804f520003003a00100020009d
:103eb000ffb29700d00a9800ffb09700c0fa2f0019
:103ec0000f0040001e05070080017800e20f50003f
:103ed00015003a0030002000ffb0970090089800cd
:103ee00010c6b3000ff19700804f51000a00320056
:103ef00064404000804f5100070032000040e8005d
:103f0000804f510004003200418323000040e8004c
:103f1000804f510001003a0081832300ffb19700d8
:103f200063009000160037000000e0001800340025
:103f3000300020007fb29700100a980010c6b3002e
:103f40008ff2970080cf52000a0032006440400098
:103f500080cf5200070032000040e80080cf5200be
:103f600004003200c18323000040e80080cf5200eb
:103f700001003a00018423007fb1970062009000a5
:103f8000315878003158780011487800c601370060
:103f900014c6b3008ff2970084cf520003003200a2
:103fa00010c4b30080cf520013003a007fb09700d6
:103fb000600190008200780000c3b3008058780050
:103fc000ffb29700e102980080c7b3008ff297001c
:103fd00084cf52000100320080c5b30080487800d1
:103fe0000280e800ffb09700e000980071009000a8
:103ff0000080e800f00098000300e00005003a00af
:10400000e3979f0064fb2f000f0142000307780035
:10401000a001370045842300e5b79f0010c6b30018
:104020008ff0970080cf50000500320010c4b3001d
:1040300080cf5000a7003a0052852300e2b79f00ce
:10404000ffb19700530890001e0220000000e0001e
:10405000010035000007e8000e02e800d4b79f0019
:104060006022b8006033b8007f9097008f98970067
:104070001f999700af999700a40b0700ffb0970016
:104080003102be002103be000000e00004003d003c
:104090000400be000601be0003f0a20002003700cb
:1040a0000400be000601be00f0979f00819f9f00a4
:1040b000929f9f00a39f9f006f9197006401510002
:1040c000e2979f00c3fa2f008f8141006a80410070
:1040d0000048eb006b824100c4b79f0031003700fd
:1040e000c201200003002000e5fa2f000f804200eb
:1040f000bf0407007f9497008f9c97001f9d970037
:10410000af9d97000800be000a01be00840b0700a7
:104110000006be005fb1970067015100d2b79f0053
:104120004240a9000a003400a90b07000002be00ab
:104130000203be000800be000a01be00a70b070074
:10414000f0979f00819f9f00929f9f00a39f9f00d9
:10415000cfb1970067804100710020000500370053
:104160006f6066004c6add004466de000c0672007b
:10417000c4eede00e00f5600e08f5e000500340064
:104180008100e900e18f4000f5ff3a0001003700af
:104190000060eb008100e900fdff3b00670040008c
:1041a000c0b79f00dfb297000500e00009003400af
:1041b0006022b8006033b8007f9097008f98970016
:1041c0001f999700af999700860b07000000e00049
:1041d000c3ff3c0060fb2f008f0040004fb19700f1
:1041e000010051000000e9008e0f500001003d0069
:1041f000000778000e00e00003003d0073fb2f0075
:104200000f8141002c003700800f570005003d0052
:104210000e80400010409000f3c0b300e74f500004
:1042200001003c008041eb00c4fa2f000f02420065
:104230000e0042006a0040008e0078000100370046
:104240000000e9008100e90010417800834f51002f
:10425000fbff32000107e800efcf510001003a00f8
:104260000248e8000100e0000300350075fb2f0064
:104270000f814200060037000e07e8006f9097009c
:1042800064004000e0979f0061fb2f000f81400019
:104290008e0041008e017800030037001100fb0002
:1042a0006fb29700e44878008301e9008100e900db
:1042b0000300e000f9ff3d00ffb2970055089000b1
:1042c0000000e000f3003d000e00e900d00a980075
:1042d000f00037007f9497008f9c97001f9d9700f8
:1042e000af9d97006022b8006033b8000800be00a0
:1042f0000a01be00050b07000000e00005003d00bc
:104300000bf0a200f8979f00899f9f009a9f9f0043
:10431000ab9f9f006f909700725927000280b900f1
:10432000026a280013002000c70a0700e4005000ba
:10433000e1979f0015003b00e3801000c0ff2f00b5
:10434000008460000800ea00e0979f007f909700db
:104350008f9897001f999700af999700897a23004b
:10436000070037000808a300030032003902be002e
:104370002903be00200b07000884d100e884440014
:104380000800e000f7ff3c001b0037000100e000e0
:104390001d003400c0ff2f0000806000e0979f00e8
:1043a000000478006000b8000200200003ff230032
:1043b000897a2300070037000808a30003003200b1
:1043c0003902be002903be000b0b07000884d10090
:1043d000e88444000800e000f7ff3c000002be0053
:1043e0000203be007f9097008f9897001f99970057
:1043f000af999700750b0700f0979f00819f9f0072
:10440000929f9f00a39f9f00ffb0970051099000cb
:1044100060c6b3008ff1970080cf510004003200d6
:104420006100200060c4b30080cf510002003a0058
:104430006f929700ea00420001074100f30f570016
:10444000010034003e01200000c3b300e0779f006c
:1044500075fb2f008f824200b5b79f0033003700f5
:104460000800be000a01be00ad0a07000006be003b
:10447000680757004240a9000e003400d40a070024
:104480000002be000203be000800be000a01be001a
:10449000d20a07006022b80046782d007719240060
:1044a000d50a0700f0979f00819f9f00929f9f0071
:1044b000a39f9f003fb09700680440008900200040
:1044c0000d003700a4002000050020000c01be00f4
:1044d000e0fd2f000f004000400407007fa8970078
:1044e0008fb097001fb19700afb1970004c3b3001e
:1044f000046441000006be00e00f5600e08f5e003d
:10450000060034008904e900e18f4400edff3a0021
:104510000200370000c3b300006478008904e9009a
:10452000fcff3b0068044400b8b79f000e00e000a9
:104530000b0034007f9497008f9c97001f9d97007d
:10454000af9d97006022b8006033b8000800be003d
:104550000a01be00a30a07000000e000c0ff3c0003
:10456000c5fa2f008f8242006a804200bfb09700d8
:10457000008050008001e9006f919700e700410042
:104580006b81420000c3b300010037000201e80064
:10459000924f1000fdff320074fb2f000f0042000d
:1045a0008080400082805000008041000202500064
:1045b000e1979f00ffb29700d509900060c6b30055
:1045c0008ff2970080cf52000300320060c4b30026
:1045d00080cf520002003a008100e8000a00370054
:1045e00050c6b3008ff0970080cf50000500320016
:1045f0008000eb0050c4b3008ff2970080cf5200d0
:1046000001003a0011002000018741008e0f520086
:1046100001003d00040778000e00e0001d00350099
:10462000840f570005003d00e2407f0095c3b300b2
:1046300040c3b30080cf500001003c0005c3b3006d
:104640000e0041008000e9008e0178000100370073
:104650008100e9008301e90011427800854f520092
:10466000fbff32000307e80090c3b30080cf520085
:1046700001003a008448e8000300e00005003d0026
:104680000201e9000e07e8006f9097000000e800c3
:10469000e0979f006f9297008e0178008ff097004f
:1046a0007fb09700ea0307004f0778004f06be006f
:1046b0004f05be004f04be008f04b100000006008d
:1046c0002f02b000889fbe008a9fbe008c9fbe0054
:1046d0008e1f780080047800600090000000e000e9
:1046e00001003c00f0ff27000000e900d004980022
:1046f000c90090000c0033000100e800c0049800dd
:104700001900900099017800120020008000eb0051
:104710000300010000057800b0022000800f550062
:1047200006003a000b0037000100e800c0049800c2
:104730002cfd2f000f0646001b003700d002200082
:10474000800f5500030032002cfd2f000f0646009d
:104750001600370030fd2f000f044000aad79f003d
:10476000590090000000e900d0049800c9009000b2
:104770000a0033000100e800c0049800190090000e
:1047800099017800120020008000eb000300010076
:104790000005780008067800040037000100e800f2
:1047a000c0049800080678000085eb00788c230090
:1047b000390090009000fb00080078008cf00700a2
:1047c00008005000018c2300614478008805fb003c
:1047d00000032000800f550033003a00590090007c
:1047e0000000e900d0049800c90090000c003300dc
:1047f0000100e800c00498001900900099017800b9
:10480000120020008000eb0003000100000578008a
:1048100080072000800f550005003a000700370090
:104820000100e800c00498000085eb001b00370081
:1048300080052000800f550018003a000804e000b1
:1048400002003200f04f54001d003a005900900061
:104850000000e900d0049800c9009000090033006e
:104860000100e800c0049800190090009901780048
:10487000120020008000eb0003000100000578001a
:10488000030037000100e800c00498000085eb0039
:104890000047eb000b012000110037000804e00086
:1048a000b8003200060037000047eb000804e000c3
:1048b00004003a00ad002000084778001c003700d3
:1048c0001ec0b300ad002000ea4f540018003200b3
:1048d000e88f550002003a008b067800140037007c
:1048e0006d01200012003700590090000000e9001f
:1048f000d0049800c9009000090033000100e800ce
:10490000c00498001900900099017800120020005e
:104910008000eb0003000100000578000300370071
:104920000100e800c00498000085eb001ec0b30041
:1049300000032000800f5500ebff32000e04e00062
:1049400018003200005e7800160037006f805700b4
:10495000800f5600010031000a5e78005900900077
:104960000000e900d0049800c9009000090033005d
:104970000100e800c0049800190090009901780037
:10498000120020008000eb00030001000005780009
:10499000030037000100e800c00498000085eb0028
:1049a0001ec0b300e10f4500070032000d01780082
:1049b0008a007800f08c23005af107000000e00024
:1049c000e2ff3a0066003700490090000000e9006d
:1049d000c00498000e04e00008003a0020fd2f00fb
:1049e0000f004000800f56005b003a00e10f4500c9
:1049f00059003a008a00780065003700004eeb004d
:104a000069489000110020000004e00060003a00b6
:104a1000390090009040780040c6b30080cf50002d
:104a2000030032006540400080cf50000a003a0089
:104a30000b0178008000eb0020fd2f000f004000ec
:104a4000370407000203be000002be0010c0b3001e
:104a5000805498000d0037000b0178008000eb00b7
:104a600020fd2f000f004000870407000203be0056
:104a70000002be0010c0b30080549800b90090003e
:104a800000c7b300914f10002c003200f94890008d
:104a9000c0c6b30080cf5000220032000a003c00a4
:104aa0006440500080cf50002400320000c0e80075
:104ab00080cf5000140032006840500080cf50007a
:104ac0001e003a000a00370040c7b30080cf5000f4
:104ad0001a0032006640400080cf500017003200bc
:104ae0006940500080cf500014003a0006003700a3
:104af000290090000080e900a004980010007800d0
:104b00000448780012003700290090000080e90076
:104b1000a0049800100078000498be000690be0023
:104b20000b003700290090000080e900a0049800e5
:104b3000100078000488be000500370029009000ae
:104b40000080e900a00498001000780004087800b4
:104b5000110020000e0037008000eb000c00370031
:104b6000490090000000e900c0049800190090007e
:104b7000990178000001eb008a0078000300010031
:104b800094ff37001ec0b3008b00200052ff370097
:104b9000010078004f0778004f06be004f05be00a9
:104ba0004f04be002f02b100000006008001780013
:104bb000d4c2b3000f0037000300e800904f12008a
:104bc00008003a0093cf100003003e0023409000fd
:104bd00080cf500012003600e38141006301510094
:104be0000400370093cf10000d0032000201e900ed
:104bf00080017800e20f5100efff3e000002eb0061
:104c00000400370064c079000402e800814f5000be
:104c100003003200820f5200faff3a000000050044
:104c200010000500f0874700889fbe008a9fbe00e5
:104c30008c9fbe008e1f78000004780081067800eb
:104c40000000eb00c0b79f00f8489000c0c6b3005a
:104c500080cf500002003a0011002000c1b79f0031
:104c60000d00e00023003d00b80090000100e800c6
:104c700030049800e2c5b3008041eb0083f79f0049
:104c8000904f110003003a000180e80030049800c2
:104c900082f79f00b8049000d0c5b300994f100070
:104ca0000200320009007800010037000900e80026
:104cb000d10520004eef0700d0b79f008000eb0029
:104cc0000000e000bd00320009065000e20f56006f
:104cd000080034000c81e9000900e800d10220003e
:104ce00090f0070011c0b300c1ef9f000000e0008a
:104cf00002003a008041eb00c3ef9f006800900083
:104d00000000e00004003c00f0ff27000d00e00080
:104d100001003a00100020005004980068489000fc
:104d20000004e0000d003a0028009000cfb097008a
:104d30000100e000050032000080e9002004980036
:104d400010007800b0b79f00040037000080e90031
:104d50002004980010007800f0b79f000045eb0099
:104d60005e0037000d00e000030034000900780009
:104d70005df007001e0037000d00e0001e0032004d
:104d8000cfe997000304e0000c003a0038009000df
:104d90008ff097000104e00004003a000c01780055
:104da000890078005ff007000b0037000c017800e5
:104db000890078005bf007000d0037003800900094
:104dc0008ff197000304e00006003a000c01780020
:104dd0008900780075ff07000000e00006003a0037
:104de0006d0037000c017800890078006fff070024
:104df0000000e00068003a004fb097000000e000bb
:104e000009003a00684890000004e00032003a00cf
:104e1000ffb0970089587800f1b79f0010c0b30029
:104e2000005498002c003700c9e79f008905fb005b
:104e30000b0078000100320010002000000578000f
:104e40001e0020000000e00016003a000904e00007
:104e500004003a007c80570036ee07000005e800a9
:104e6000100037000e07e900fc81570063407f0007
:104e70008000fb0048019000e14f40000700320035
:104e80000200e900400498001800900098017800a2
:104e90000001eb0003000100020037000200e900fe
:104ea000400498008e0f5500eeff350068489000d2
:104eb0000004e00005003a003fb097000b187800ae
:104ec000b0b79f0010c0b300005498006800900075
:104ed0000000e900600498002ac0b3005800900068
:104ee0000000e90050049800480190000b003300d6
:104ef0000200e80040049800180090009801780033
:104f0000120020008000eb00030001008004780004
:104f1000e10f400093ff3a00020037000200e80072
:104f200040049800480090000000e9004004980008
:104f30000d00e00002003200e24f55000400320094
:104f40000a00fb008080eb001c00320010003700dc
:104f5000684890000004e00009003a00cfb09700d4
:104f60000100e00003003200bfb197008009eb00b0
:104f7000030037008fe897007fb097000148780062
:104f80000d00e00002003d00dfb1970033049800ff
:104f90001100200009003700480090000000e900df
:104fa0004004980018009000980178000001eb0080
:104fb0008900780003000100ddff37000100780060
:104fc0004f0778004f06be004f05be004f04be00dd
:104fd0000f01b100000006000000e00031003200c7
:104fe0008080e90091027800e38f52002d003600a6
:104ff0000508a3002b003a00e2d081000200e00087
:1050000002003200828f5000040031000208780054
:10501000e1d089001600370003017800920190006a
:105020000300e00002003200818f5100faff3900d6
:105030001202780004004100808f500019003900ee
:10504000810f500003003a000509420082007800f9
:10505000070037000300e000030032000580400035
:10506000808f51000f0039009300980011019800c3
:10507000110190000200e0000a003200118040009f
:10508000820f500007003a00a0a123000008eb00a7
:10509000110090001101780090084100100090006c
:1050a0009000980000000600000178000000200039
:1050b0000000e00008003200000080000000e00076
:1050c000050032000000e9000000880000004000f8
:1050d0000100800002b07800000006008001780026
:1050e000010178008000eb00040037006a08b90075
:1050f00000004200850040008301e8000201e90051
:10510000060033001302fb0005fd2f0005004200de
:10511000e90f5000f5ff36008080eb0001007800b9
:1051200000000600e8874700889fbe008a9fbe00f7
:105130008c9fbe008e1f7800304778008004780076
:105140000e04e0006c0032002a002000020037004c
:105150000800e8000a05e8008e00fb0024ee0700c6
:10516000000478000000e000f9ff3a006550b90043
:10517000a703070080bf9f00800578000000e000c3
:105180005d0032000006e80000057800e8b79f00e7
:1051900080c2b300994f10000c003a000900e800eb
:1051a00041002000cdff070041892f000100400091
:1051b000e0b79f0048003300d940900090c2b30090
:1051c00080cf500044003a00e68444004fe8970046
:1051d000e0ef9f0040459800210020000900780082
:1051e000beff0700e3064500804ee9000980e800a5
:1051f00021002000b9ff07000a84e800004ce90004
:10520000648144001200fb000003b100e90f50006c
:1052100006003e002100200002007800afff0700da
:10522000004e78006681440001003700004eeb001c
:10523000b0c0b3009d4f100027003e0030c6b30041
:10524000984f100024003e009c4f100022003e00aa
:1052500092407800b0c2b30080cf50000500320009
:1052600000c0e80080cf500002003200004deb008b
:10527000100037009241900000cdb30000c2410001
:10528000e64f520014003e0071c0b30000c3b300eb
:1052900080cf51000100320084407800014d780039
:1052a000b0c2b300924f100001003a0067cd400039
:1052b0000281e800124078000004e000090032009a
:1052c000650646008e4f500003003a006505450014
:1052d0008204e800aeff37000fb897003eff0700da
:1052e000050037006500450000c8eb00efe89700b7
:1052f00041409800010037008005eb000b0078006a
:105300004f0778004f06be004f05be004f04be0099
:105310008f00b100000006001004b1000700350046
:105320009001b100040034007000b10003003500aa
:105330009001b10001003c001000050000000500d4
:10534000889fbe00800478006684400000ff27002c
:10535000180060004401de00f07f2000800f510043
:105360000e003a00800ceb00180478006f00640017
:105370001c003a00210090000000e00019003a00f3
:10538000110090000000e00016003a00100020001c
:105390001100e00014003200120037000200e000ab
:1053a00005003c00010078006b0307000001780055
:1053b0000000e00008003c00f00028001800600039
:1053c00001fe2300010c700020c02f00800c410062
:1053d0000080eb0004003700800ceb000000eb00c5
:1053e00001003700200020004f04be00000006002e
:1053f000889fbe008a1f78008c9fbe000004780042
:105400000206be00e6044000190178000200d00048
:105410004505de008a007800f07f2000800f5500ef
:105420000c003a006f00610067003a00280090000d
:105430000000e00064003a00180090000000e00066
:1054400061003a00100020001800e0005f00320008
:105450005d0037000a00e00007003a00080078000d
:105460003d030700800078000000e00002003400e7
:105470000a007800550037006108b9000c014000af
:105480008d814800e07f2000800f5100e08f59009f
:105490000d0034001900e00004003d006000b80079
:1054a0000200200003ff2f00030037006000b80057
:1054b0000200200003ff2700009cbe000294be00f3
:1054c0001000200041003700e00f5100e08f59002c
:1054d00005003400f000280019006000c410dd0051
:1054e000810c700036003700190078000100280098
:1054f000010360006f0060000040a000800c780095
:1055000061015100e0815900c0fc2f00f1ff2f0024
:10551000800f5100818f590006003d00860c7800f5
:105520000000eb002004980010049800000c7800a4
:1055300026003700020078000881e800e4004400fb
:1055400005003700120c78001109780099087800de
:10555000800ceb0070004000f00f4000f9ff3400b9
:105560008002ea00150032008881e8007082120093
:10557000980078008508de00130078000400dd0044
:10558000008c700064014400930078008508de0000
:10559000120078000400dd0080897000920078001d
:1055a0008508de00190078000400dd000089700025
:1055b000190078000500de00800c7800990c73005b
:1055c0000080eb0001003700200020004f06be00e5
:1055d0004f0578004f04be00000006000400fa00ea
:1055e000889fbe008a9fbe008c1f7800000678004e
:1055f00092bf9f00a3bf9f000404be000401be0031
:105600001fb89700afb897000f0607000005be004f
:105610000001be000800be002d0307001fb997005f
:10562000afb9970000005100818059002006980012
:10563000310698000a8ebe000c0078004f067800f4
:105640004f05be004f04be000080fa0000000600b7
:105650000e00fa00889fbe008a9fbe008c9fbe008d
:105660000004780001457800020678008304780081
:10567000840678000300e00002003c0019002000ce
:105680008ca6230060c6b300804f55000e00320088
:1056900060c4b300804f55000b00320070c6b300e9
:1056a000804f55000300320070c4b300804f550096
:1056b0009c003a00e48f46008000350058089000b6
:1056c000808f56007d003d008d05e80060c6b30068
:1056d000804f55001000320060c4b300804f550069
:1056e0000d003200081090000038a30004003a00ba
:1056f00058089000808f540001003d00590c98001c
:10570000580890000b005000500c980002003b001d
:105710000000eb00500c98000b00e00027003c005c
:10572000180990006800900001c3b300017079006f
:105730008201e800130c9800580890000000e00077
:1057400003003c00081090000038a3000500320060
:1057500068009000e1c2b30001f079000280e80027
:10576000100c9800d80890000b00ea00808f5000c1
:1057700001003d008105ea000b00ea00200c9800c2
:1057800001804500500c9800890f500001003d0039
:1057900080047800390c9800680090009808900008
:1057a00001004000090178008c007800ddec070062
:1057b00058089000090050001a003700980890001f
:1057c000680090008b8f540018003d0001004000dd
:1057d000090178008c007800d2ec070018089000ce
:1057e00000814400120c980009805500200c98009c
:1057f000580890000000e00003003c0008109000f2
:105800000038a30006003200e8009000e0c2b300b8
:1058100080707900380890000000e800300c980093
:1058200058089000400c9800a60037000100400086
:105830000b0178008c007800baec07001808900083
:1058400000814500120c98008b8454005808900089
:105850000000e00003003c00081090000038a300a6
:105860000500320068009000e1c2b30001707900c9
:105870000200e800100c980058089000890f5000b2
:1058800001003d00800478006800900098089000b6
:10589000010040008b00460009017800a1ec0700e0
:1058a0001808900000804400100c980058089000e0
:1058b00009005000200c98008200370070c6b30029
:1058c000804f55000300320070c4b300804f550074
:1058d00014003a0058089000808f540004003d00e6
:1058e000081090000038a30001003a00590c9800fd
:1058f000580890000000e900500c980002003b009e
:105900000000eb00500c980070c6b300804f5500ab
:1059100002003a005ac6b3000b0037005ac4b30065
:105920000900370010c6b300804f550002003a004e
:105930000ac7b3000400370010c4b300804f5500fd
:1059400001003a000ac5b3001809900068009000f1
:105950003c7079008201e800130c98000c0278007a
:10596000580890000000e00003003c000810900080
:105970000038a30017003200e8009000e0c2b30036
:1059800080f079008280e800110c9800580890009f
:105990000000e0000f0034008904e900890f500086
:1059a00001003d0080047800680090000080400005
:1059b00009017800840078005aec0700180890006c
:1059c00000804400100c9800580890000900500016
:1059d000200c98006800900098089000010040009a
:1059e0000086e8000a587800800078000d00e0008a
:1059f00004003500b0c2b300804878008c04780001
:105a000004003700d0c2b300804878008c047800ce
:105a10008d06ea008005eb000a003700a200200096
:105a20008d00780070805700170207000fb89700ac
:105a30009fb897007a81550001f17f008b05e8003f
:105a4000800678000d00e000f4ff3c00e18f550077
:105a500009003c0050c6b300804f550003003200df
:105a600050c4b300804f550003003a0000c3b30098
:105a7000005e78008c0478000b00e0000400320027
:105a80000b00e900fa805700008040000600370054
:105a900000c3b300805c7800050037008b05e90087
:105aa00002c3b300a05c41000b00e000fbff3c0020
:105ab00068009000980890000100400000805400a9
:105ac000300c98000810900074006000f00f500037
:105ad0000e003a0078009000980890000100400005
:105ae000a808900001004000b808900001004000a4
:105af000c80890008100400078089000808f500016
:105b000002003d0001005000000c98004f06be004e
:105b10004f05be004f04be000080fa0000000600e2
:105b20000200fa00889fbe008a9fbe008c1f78008a
:105b30008005780001057800020678000100e00089
:105b400001003a006c8557000b0478000100370013
:105b50000804e800984478000900fb00e2ec070024
:105b60000000e000faff3a00d0c2b30080cf54003a
:105b70000500320000c0e90080cf5400020032006e
:105b800080447800010037000804e8000c01780028
:105b90008a007800080078003b0007000203be007e
:105ba0000002be009a0f540001003a000b0d78006d
:105bb0009a8f550005003a00e00f5200e08f5a001e
:105bc000e00f5b00e08f5b0014003a00b0c2b3004e
:105bd00080cf540006003a00e00f5200e08f5a00d8
:105be000e00f5b00e08f5b0020003d000b00370002
:105bf000d0c2b30080cf54001c003a006000b8004f
:105c000002002000030028000020e10001a8e100bc
:105c100002b0e10003b8e1000e00360020022000cf
:105c2000c0d189006b40400080cf540004003a008e
:105c30006000b80002002000030028000d003700bb
:105c4000f0ff2f00f1ff2f00f2ff2f00f3ff2700de
:105c5000080037006000b8006011b800040250006e
:105c60008582580006035900878359000400be004e
:105c70000601be004f0678004f05be004f04be006f
:105c80000080fa0000000600fc874700889fbe00e5
:105c90008a9fbe008c9fbe008e1f78000007780090
:105ca0008106780082047800000478000100370043
:105cb0000804e800184678000c00fb008aec070096
:105cc0000000e000faff3a00d0c2b300804f560057
:105cd0000500320000c0e900804f5600020032008b
:105ce00000467800010037000804e8000900e000e1
:105cf00005003500e18f540003003200400220000f
:105d0000808f5400040034000d00e000b000320029
:105d10008e0e7800ae0037000900e0000e0034005f
:105d2000f08f54001a003a0000c3b300984f1000df
:105d300016003a009840900080c7b30080cf500012
:105d40000300320080c5b30080cf50000f003a003e
:105d50000884e8000e003700a900200000c3b3004b
:105d6000984f10000a003a009840900080c7b30096
:105d700080cf5000040032008900200080c5b300ad
:105d800080cf500002003a000884e800090120009a
:105d90000805780000c3b300010037000a05e800d9
:105da0009a4f1000fdff32008a0578006022b8008b
:105db0006033b800260037003078230080c05000e0
:105dc00081ef9f0009027800cfa2de000503780072
:105dd000860378000fb097009fb097002fb197000f
:105de000bfb197009d030700d0b79f00e1b79f00a8
:105df000f2b79f0083bf9f000fe897000002fb00ef
:105e0000cfa2de0005037800860378008b05e8004a
:105e10000fb097009fb097002fb19700bfb19700c8
:105e2000c0af9f00d1af9f00e2af9f00f3af9f00d4
:105e30005fb09700efb097007fb197008fb99700e0
:105e40000002420081824a0002034b0083834b0020
:105e500084b79f0095b79f00a6b79f00b7b79f0074
:105e60001b00fb0028ec0700800078000901780087
:105e7000307823002bec0700800078000000e00061
:105e8000cdff3a008b0f54000a003a000d00e000ed
:105e90004f0032008e0e78006022b8006033b800e8
:105ea00084b79f0095b79f00a6b79f00b7b79f0024
:105eb0004d0037008a805500e075230060c07c00eb
:105ec0000000fb00008050002c0033004240a9007d
