:10000000D0C0EAC0E9C0E8C0E7C0E6C0E5C0E4C0CF
:10001000E3C0E2C0E1C077C1A0C1DEC0DDC0DCC08A
:10002000DBC0DAC0D9C007634236B79BD8A71A39FC
:10003000685618AEBAAB558C1D3CB7CC5763BD6D36
:10004000EDFD753EF6177231BF000000803F0800DD
:100050000000BE922449123EABAAAA2ABECDCCCC47
:100060004C3E00000080BEABAAAAAA3E00000000E1
:10007000BF000000803F0000000000084178D3BBB3
:100080004387D1133D190E3CC3BD4282AD2B3E6860
:10009000EC8276BED98FE1A93E4C80EFFFBE01C451
:1000A000FF7F3F000000000000407A10F35A00A0DC
:1000B000724E18090010A5D4E80000E87648170031
:1000C00000E40B54020000CA9A3B000000E1F50571
:1000D000000080969800000040420F000000A086BB
:1000E00001000000102700000000E80300000000ED
:1000F0006400000000000A00000000000100000091
:1001000000002C76D888DC674F0823DFC1DFAE59AA
:10011000E1B1B796E5E3E453C63AE651997696E83D
:10012000E6C28426EB898C9B62ED407C6FFCEFBCC1
:100130009C9F40F2BAA56FA5F490055A2AF75C93EC
:100140006B6CF9676DC11BFCE0E40D47FEF520E622
:10015000B500D0ED902E0300943577050080841E05
:10016000080000204E0A000000C80C333333330F60
:10017000986E12831141EF8D2114893BE65516CFFD
:10018000FEE6DB18D1844B381BF77C1D901DA4BB09
:10019000E424203284725E228100C9F124ECA1E5BE
:1001A0003D2711241FBECFE5D4E0DEBFCDBF10E058
:1001B000A0E6B0E0E2EBF6E102C005900D92A038B7
:1001C000B107D9F711E0A0E8B0E001C01D92AB364D
:1001D000B107E1F702D06BCA13CFBF92CF92DF9283
:1001E000EF92FF920F931F93CF93DF9383E390E0FF
:1001F000D9D0789481B381BB82B382BBCED32BE0BC
:10020000C22E21E0D22E90E5B92EC8ECD0E081E0DC
:10021000E82EF12CF6018B2D11928A95E9F788E2F0
:1002200093E2FE013197F1F70197D9F740D360933C
:10023000DD007093DE008093DF009093E000ECD14E
:100240006093D9007093DA008093DB009093DC0018
:1002500048E026E001EE10E04ED76091DD0070919D
:10026000DE008091DF009091E00048E026E007EF9B
:1002700010E041D7839B05C0F092F600E092F500B4
:1002800004C01092F6001092F5008091F500909154
:10029000F60065EC70E04AE050E058D784EF91E05A
:1002A000FE013197F1F70197D9F78BE091E060E615
:1002B00070E041D78BE091E061EE70E03CD78BE0DD
:1002C00091E06AE670E037D78BE091E067EF70E08D
:1002D00032D78BE091E065E770E02DD78BE091E0BD
:1002E00065EC70E028D78BE091E06BE770E023D7F6
:1002F00084EF91E0FE013197F1F70197D9F78BE098
:1003000091E094D087CF1F920F920FB60F921124D5
:100310002F938F939F93EF93FF939BB12CB1E09119
:10032000C200EF5FEF718091C300E81711F482E023
:1003300008C0892F8871E093C200F0E0E056FF4FBB
:1003400020838093C400FF91EF919F918F912F9113
:100350000F900FBE0F901F9018951F920F920FB61F
:100360000F9211248F939F93EF93FF939091C0006E
:100370008091C100981761F0E091C100EF5FEF71CB
:10038000E093C100F0E0E058FF4F80818CB901C0DC
:100390005598FF91EF919F918F910F900FBE0F9005
:1003A0001F9018959C011092C0001092C1001092ED
:1003B000C2001092C30097FF03C082E08BB93F7761
:1003C00030BD29B988E98AB986E880BD0895909141
:1003D000C2008091C300981719F420E031E012C0E8
:1003E000E091C300EF5FEF71E093C300F0E0E056EF
:1003F000FF4F30812091C400922F80E0AC01430F69
:10040000511D9A01C9010895282F9091C0009F5F46
:100410009F718091C1009817E1F3E92FF0E0E05857
:10042000FF4F20839093C000559A0895CF93DF9398
:10043000EC0102C02196E8DF88818823D9F7DF919B
:10044000CF910895CF93DF93EC0101C0DDDFFE0172
:10045000219684918823D1F7DF91CF91089522E0EE
:1004600004C0922F9A95F1F781508823D1F708950F
:1004700080B390E0969587959695879581700895BD
:1004800092988A9A80EF22E0922F9A95F1F7815004
:10049000D9F780EF22E0922F9A95F1F78150D9F7A2
:1004A0008A98929A82E422E0922F9A95F1F78150ED
:1004B000D9F780B320EF42E0342F3A95F1F721507D
:1004C000D9F72EEA42E0342F3A95F1F72150D9F7C7
:1004D000829902C081E0089590E09695879596955F
:1004E00087958170089592988A9A92E0292F2A958B
:1004F000F1F79A95F1F7882311F08A98929A8EE095
:1005000022E0922F9A95F1F78150D9F780B32DE22E
:1005100092E0392F3A95F1F72150D9F78A98929ABB
:1005200090E09695879596958795817008950F939D
:100530001F93182F08E0812F8170D5DF1695811148
:1005400010680150C1F7812F1F910F9108958FEF0F
:10055000EEDF0895DF92EF92FF920F931F93CF93F8
:10056000DF93E82EEB018CDF882381F580EFDFDF5E
:1005700080E4FF24182F68EFD62ED80E81E0B3DF79
:10058000082F81E0B0DF882329F0002371F05EEFAF
:10059000F52E1EC0002349F41E1528F0888180FF27
:1005A00004C0E11611F0F12E01E0802F9CDF88815C
:1005B00086958883002311F08068888311501D156B
:1005C000E9F6112329F02196812FD4CFFF24FA9444
:1005D0008F2DDF91CF911F910F91FF90EF90DF90C2
:1005E00008950F931F93CF93DF93082FEB0148DFFC
:1005F000209741F085E59BDF18E0899198DF115045
:10060000E1F702C08CEC93DF802F91DFDF91CF9177
:100610001F910F9108950895AF92BF92CF92DF92EC
:10062000EF92FF920F931F93DF93CF93CDB7DEB777
:100630002A970FB6F894DEBF0FBECDBF21DF8CEC3A
:1006400090E075DF8EE490E072DF80E090E06FDF95
:1006500080E090E06CDF8FE790E069DF8AE18A95C7
:10066000F1F70EDF8CEC90E062DF84E490E05FDF76
:100670008CED95E00197F1F703DF8CEC90E057DF0C
:100680008EEB90E054DF8E010F5F1F4F8AE0E82E63
:10069000F12CEC0EFD1E5BDFF80181938F01EE154E
:1006A000FF05C9F7E9806A8167706295607F70E035
:1006B00080E090E0A2D25B016C016E2D62956F70BC
:1006C00070E080E090E099D29B01AC01C601B501D9
:1006D000C4D15B016C01FFE0EF22FF2400E010E0D9
:1006E000C801B7018AD220E030E040E85DE33BD3A7
:1006F0009B01AC01C601B501B0D12A960FB6F894A2
:10070000DEBF0FBECDBFCF91DF911F910F91FF9044
:10071000EF90DF90CF90BF90AF9008956F927F924F
:100720008F929F92AF92BF92CF92DF92EF92FF9201
:100730000F931F935B016C0139014A01F6D17B01D4
:100740008C0120E030E040E050E009D3882354F1F0
:10075000C801B70128EB3EE145E05FE3E2D118169E
:100760000CF1C801B70123E333E343EB5FE35ED34E
:100770007B018C01C401B30125E236E041E05DE379
:10078000F2D25B016C01C401B3012FE834EE42E701
:100790005DEBE9D2A8019701E6D29B01AC01C6014D
:1007A000B5016AC0C801B70128EB3EE145E05FE34F
:1007B000D6D21816CCF4C801B70126E636E646E2D2
:1007C0005FE3AFD1181684F0C401B30128EC38E917
:1007D0004BEB5CE3C8D27B018C01C601B50120E282
:1007E00033E64EEE5CEB43C0C801B70126E636E6C1
:1007F00046E25FE3B4D21816CCF4C801B7012DEC81
:100800003CEC4CE45FE38DD1181684F0C401B301D5
:1008100029E43DE940E85CE3A6D27B018C01C601F6
:10082000B5012CEB34E743E95CEB21C0C801B7010B
:100830002DEC3CEC4CE45FE392D218160CF5C801A9
:10084000B70126E636E646EA5FE36BD11816C4F038
:10085000C401B3012DEF32E84DE55BE384D27B01A7
:100860008C01C601B50123EC34E64AE25BEB7BD296
:100870009B01AC01C801B701F0D0E62F692F04C07D
:10088000E0E070E080E060E02E2F372F482F562FF9
:10089000B901CA011F910F91FF90EF90DF90CF90A7
:1008A000BF90AF909F908F907F906F900895EF9240
:1008B000FF920F931F9382E583D080EE93D083E065
:1008C00091D088D082E57CD08CEE8CD083D083E52B
:1008D00077D0A6D08093670110926801A1D0809351
:1008E00061011092620182E56BD08EEE7BD072D0F6
:1008F00083E566D095D080935F011092600190D01F
:100900008093690110926A0165D07091610160E085
:100910002091670130916801620F731F882777FD6E
:100920008095982F6CD17B018C016093630170934B
:10093000640180936501909366017091690160E0A4
:1009400020915F0130916001620F731F882777FD4E
:100950008095982F54D160935B0170935C018093D4
:100960005D0190935E01A8019701D8DE9B01AC0167
:100970002093DD003093DE004093DF005093E000D1
:100980001F910F91FF90EF90089500C000C000C02C
:1009900000C000C000C000000895A498A598AC98BD
:1009A000AD980895A49AF1DF1DD00895A59AEDDFC2
:1009B000A498EBDFA598E9DFA49AE7DF13D00895A8
:1009C000082EA49AE2DF802D0DD0882311F002D0EA
:1009D000F8CF0895A59AA49AD8DFA598D6DFA49851
:1009E000D4DF08950894881F01C0880F59F0A59A94
:1009F00018F40000A49802C0A49A00C0C6DFA5980D
:100A0000C4DFF3CFA59AA498C0DFA5989D9BFECF25
:100A100088279C9981E0B9DF99270895882701C02C
:100A200081E071E0A59AA498B0DFA598AEDF9D9B08
:100A3000FECF88949C990894771FA0F7A59A8130DF
:100A400011F0A49801C0A49AA0DFA5989D9BFECFA9
:100A50009CDF872F992708955058BB27AA270ED0CF
:100A600044C135D130F03AD120F031F49F3F11F438
:100A70001EF42AC10EF4E095E7FB20C1E92F46D110
:100A800080F3BA17620773078407950718F071F4AB
:100A90009EF55EC10EF4E0950B2EBA2FA02D0B0132
:100AA000B90190010C01CA01A0011124FF27591BB3
:100AB00099F0593F50F4503E68F11A16F040A22FB9
:100AC000232F342F4427585FF3CF4695379527952A
:100AD000A795F0405395C9F77EF41F16BA0B620B29
:100AE000730B840BBAF09150A1F0FF0FBB1F661F70
:100AF000771F881FC2F70EC0BA0F621F731F841FB3
:100B000048F4879577956795B795F7959E3F08F0D8
:100B1000B3CF9395880F08F09927EE0F9795879597
:100B20000895A8D008F481E008950CD0DEC0D6D096
:100B300040F0CDD030F021F45F3F19F0BFC051112B
:100B400008C1C2C0E3D098F39923C9F35523B1F388
:100B5000951B550BBB27AA2762177307840738F02C
:100B60009F5F5F4F220F331F441FAA1FA9F333D08B
:100B70000E2E3AF0E0E830D091505040E695001C3F
:100B8000CAF729D0FE2F27D0660F771F881FBB1FFB
:100B9000261737074807AB07B0E809F0BB0B802DD5
:100BA000BF01FF2793585F4F2AF09E3F510568F021
:100BB00085C0CFC05F3FECF3983EDCF38695779518
:100BC0006795B795F7959F5FC9F7880F911D969523
:100BD000879597F90895E1E0660F771F881FBB1F7F
:100BE000621773078407BA0720F0621B730B840B2C
:100BF000BA0BEE1F88F7E0950895E89409C097FBBB
:100C00003EF490958095709561957F4F8F4F9F4FE3
:100C10009923A9F0F92F96E9BB279395F695879527
:100C200077956795B795F111F8CFFAF4BB0F11F4EA
:100C300060FF1BC06F5F7F4F8F4F9F4F16C0882391
:100C400011F096E911C0772321F09EE8872F762FC7
:100C500005C0662371F096E8862F70E060E02AF008
:100C60009A95660F771F881FDAF7880F96958795F4
:100C700097F90895990F0008550FAA0BE0E8FEEFC9
:100C800016161706E807F907C0F012161306E40750
:100C9000F50798F0621B730B840B950B39F40A2649
:100CA00061F0232B242B252B21F408950A2609F427
:100CB000A140A6958FEF811D811D089597F99F672B
:100CC00080E870E060E008959FEF80EC08950024D4
:100CD0000A941616170618060906089500240A94A1
:100CE00012161306140605060895092E0394000C27
:100CF00011F4882352F0BB0F40F4BF2B11F460FFB6
:100D000004C06F5F7F4F8F4F9F4F089557FD9058DE
:100D1000440F551F59F05F3F71F04795880F97FBBF
:100D2000991F61F09F3F79F0879508951216130679
:100D30001406551FF2CF4695F1DF08C016161706A8
:100D40001806991FF1CF86957105610508940895DD
:100D5000E894BB2766277727CB0197F908958ADFA8
:100D600008F48FEF08950BD0C0CFB1DF28F0B6DFC5
:100D700018F0952309F0A2CFA7CF1124EACFC6DF40
:100D8000A0F3959FD1F3950F50E0551F629FF0019E
:100D9000729FBB27F00DB11D639FAA27F00DB11DF7
:100DA000AA1F649F6627B00DA11D661F829F222780
:100DB000B00DA11D621F739FB00DA11D621F839F07
:100DC000A00D611D221F749F3327A00D611D231FDD
:100DD000849F600D211D822F762F6A2F11249F572B
:100DE00050408AF0E1F088234AF0EE0FFF1FBB1F4E
:100DF000661F771F881F91505040A9F79E3F5105ED
:100E000070F05CCFA6CF5F3FECF3983EDCF38695A5
:100E100077956795B795F795E7959F5FC1F7FE2B97
:100E2000880F911D9695879597F90895FA01EE0F11
:100E3000FF1F30962105310599F16115710561F4A7
:100E40008038BFE39B0749F168949038810561F0D1
:100E50008038BFEF9B0741F0992342F5FF3FE10542
:100E60003105210511F1E8940894E795D901AA23E9
:100E700029F4AB2FBE2FF85FD0F310C0FF5F70F4E2
:100E8000A695E0F7F73950F019F0FF3A38F49F775C
:100E90009F930CD00F9007FC905808953EF014CF0C
:100EA00060E070E080E89FE308954FE79F775F93ED
:100EB0004F933F932F939ED02F913F914F915F91EE
:100EC00052DF05C019F40EF0F9CE42CFFDCE26DF79
:100ED000C8F39638C0F707F80F92E8942BE33AEA84
:100EE00048EB5FE74EDF0F920F920F924DB75EB760
:100EF0000F92C0D0E6E2F0E016D04F915F91EF91F3
:100F0000FF91E595EE1FFF1F49F0FE57E06844276B
:100F1000EE0F441FFA95E1F74195550B32D00F9033
:100F200007FE26C00895DF93CF931F930F93FF9280
:100F3000EF92DF927B018C01689405C0DA2EEF01FD
:100F40001EDFFE01E894A5912591359145915591BB
:100F5000AEF3EF0193DDFE019701A801DA9479F772
:100F6000DF90EF90FF900F911F91CF91DF91089547
:100F70009B01AC0160E070E080E89FE3D6CD9ECE9F
:100F8000ACC0CCDEE8F39923D9F3940F511DBBF329
:100F90009150504094F059F0882332F0660F771F3B
:100FA000881F91505040C1F79E3F510544F7880F6C
:100FB000911D9695879597F908955F3FACF0983EFF
:100FC0009CF0BB27869577956795B79508F4B16037
:100FD0009395C1F7BB0F58F711F460FFE8CF6F5F2F
:100FE0007F4F8F4F9F4FE3CFB4CE0EF076C06CCEC5
:100FF000689464CE93DEC8F39923D1F3C6F3DF93EC
:10100000CF931F930F93FF92C92FDD2788232AF0D8
:101010002197660F771F881FDAF720E030E040E85D
:101020005FEB9FE3883920F0803E30F021968F7788
:1010300014DDEEE4F0E003C010DDEBE7F0E073DF79
:101040008B01BE01EC01FB2E6F5771097595771F5F
:10105000880B990BD4DD28E132E741E35FE38FDEB3
:10106000AF2D9801AE01FF900F911F91CF91DF91AD
:1010700005DD3BCEFA01DC01AA0FBB1F9B01AC01D1
:10108000BF5728F422273327442750781FC0B75171
:1010900088F4AB2F0024469537952795011CA3951E
:1010A000D2F3002069F0220F331F441FB395DAF307
:1010B0000DD0D2CC61307105A0E88A07B94630F472
:1010C0009B01AC016627772788279078309621F01E
:1010D000208331834283538308959F3F31F09150A1
:1010E00020F4879577956795B795880F911D96950C
:1010F000879597F90895EF92FF920F931F93F22F20
:10110000F02E47FD02C0E4E001C0E4E1242F3327C4
:1011100027FD309537FF03C0309521953F4F4F2D68
:10112000512F0F2FEE2E31D08F2D912F1F910F9118
:10113000FF90EF900895FB01DC010D900020E9F78E
:10114000119701900D920020E1F70895FB019F0196
:10115000E8944230BCF04532ACF44A3029F497FBB5
:101160001EF4909581959F4F642F772755D2805D0F
:101170008A330CF0895D8193CB010097A9F716F4AF
:101180005DE251931082C90137C2A9E0B0E0EAECF8
:10119000F8E05AC26A01122FA02EBE2C2BE32017B2
:1011A00018F42CE3922E02C0902E9394AE014F5F60
:1011B0005F4F27E0092D48D1BC018981E82EFF242B
:1011C000C70189709070019711F4ADE209C0B1FEBA
:1011D00002C0ABE205C0B0FC02C0A0E001C0A0E2CA
:1011E000E3FE3BC0AA2311F423E001C024E0211751
:1011F00010F020E002C0121B212FEB2CB4FE02C025
:10120000322F0AC0F601322F80E202C081933150A2
:101210003323E1F7C20ED11CAA2319F0F601A193E2
:101220006F01F6013196E2FE05C09EE4D6019C9363
:1012300081E404C09EE6D6019C9381E611968C93CE
:1012400091833296DF01832F90E202C09D938150FB
:101250008823E1F7E30FF11D40C0E2FE42C0AA235C
:1012600011F423E001C024E0211710F020E002C0B7
:10127000121B212FEB2CB4FE02C0922F0AC0F601E4
:10128000922F80E202C0819391509923E1F7C20E20
:10129000D11CAA2319F0F601A1936F01F601319632
:1012A000E2FE08C089E4D6018C938EE411968C93FB
:1012B00086E407C089E6D6018C938EE611968C935E
:1012C00086E681833296DF01892F20E202C02D93CA
:1012D00081508823E1F7E90FF11D10822EEF3FEFD7
:1012E000AFC0161617061CF041E050E003C0AB017A
:1012F0004F5F5F4FAA2019F480E090E003C08A2D71
:1013000090E0019620E030E0AA2311F021E030E0E7
:10131000240F351F280F391F812F90E02817390718
:1013200014F020E002C0121B212F4B2D50E0CA0107
:1013300080719070B4FC0DC0B3FC0BC0F601322F6D
:1013400040E202C0419331503323E1F7C20ED11C79
:1013500001C0322FAA2319F0F601A1936F01892B46
:1013600011F0132F0AC0F601132F80E302C08193FE
:1013700011501123E1F7C30ED11C092D060FBA80BD
:1013800090E1892E912C8E209F20E4FE04C0F1E391
:10139000BF1609F40150101614F001E003C0093023
:1013A00008F008E09B0177FF02C020E030E0CB01AD
:1013B0000196821B930BFE013196E80FF91F8EE216
:1013C000F82E3B01601A71088A2D90E044275527BA
:1013D000481B590B8FEF2F3F380719F4D601FD92A8
:1013E0006D01621773072CF06216730614F4808186
:1013F00001C080E32150304031962417350724F096
:10140000D6018D936D01E6CF2617370749F4B5E372
:10141000BB1528F0BB1621F48114910409F481E373
:10142000F6018193D601812F90E202C09C938150F6
:1014300011968823D9F7E10FF11D108220E030E0EA
:10144000C9012996EEE01CC1283008F027E03327B7
:10145000DA01990F311D87FD9160009661057105D4
:1014600039F432602E5F3D9330E32A95E1F7089519
:101470009F3F30F080387105610509F03C5F3C5FAB
:101480003D93913008F08068911DDF93CF931F93B7
:101490000F93FF92EF92192F987F9695E92F9695CB
:1014A0009695E90FFF27EE5FFE4F99273327EE242D
:1014B000FF24A701E70105900894079428F4360F4C
:1014C000E71EF81E491F511D660F771F881F991FC1
:1014D0000694A1F70590079428F4E70EF81E491F1B
:1014E000561FC11D770F881F991F661F0694A1F70D
:1014F0000590079428F4F80E491F561FC71FD11DE9
:10150000880F991F661F771F0694A1F7059007940F
:1015100020F4490F561FC71FD81F990F661F771F4A
:10152000881F0694A9F784911095177041F0D695FD
:10153000C79557954795F794E7941A95C1F7E8EA48
:10154000F0E068941590159135916591959105900D
:101550007FE27395E118F10A430B560BC90BD009D2
:10156000C0F7E10CF11E431F561FC91FD01D7EF4AA
:10157000703311F48A95E6CFE894015030F0080FEB
:101580000AF40027021708F4202F2395022F7A333C
:1015900028F079E37D932A95E9F710C07D932A9589
:1015A00089F6069497956795379517951794E118DE
:1015B000F10A430B560BC90BD00998F023957E9185
:1015C00073957A3308F070E37C932013B8F77E911B
:1015D00070617D9330F0839571E37D9370E32A957C
:1015E000E1F71124EF90FF900F911F91CF91DF91C0
:1015F000992787FD90950895DC01FC01672F719173
:101600007723E1F7329704C07C916D9370836291E8
:10161000AE17BF07C8F30895AA1BBB1B51E107C053
:10162000AA1FBB1FA617B70710F0A61BB70B881F72
:10163000991F5A95A9F780959095BC01CD01089501
:101640002F923F924F925F926F927F928F929F92D2
:10165000AF92BF92CF92DF92EF92FF920F931F93C0
:10166000CF93DF93CDB7DEB7CA1BDB0B0FB6F89471
:10167000DEBF0FBECDBF09942A88398848885F84B1
:101680006E847D848C849B84AA84B984C884DF8022
:10169000EE80FD800C811B81AA81B981CE0FD11D06
:1016A0000FB6F894DEBF0FBECDBFED010895F894DC
:0216B000FFCF6A
:1016B20054656D705F76616C3A002C4C75785F638F
:1016C200616C633A007C5069723A000A0D0A0000AC
:00000001FF
