:020000040000fa
:080000000002040000000000f2
:020000040000fa
:10040000cff72300007f24000001880000000000d7
:100410000c000700c02f260011002000110007006b
:10042000000020000000e000020032000000020096
:100430000000000098740200010000000040da0093
:100440000000fe004440a90040c020000000e00081
:100450000300320000002000a00188004440a800f2
:100460000000060091018800800078000000eb0089
:1004700015003700e280400032a0b4009101ba00bc
:10048000e280400032a0b4009102ba00e280400055
:1004900032a0b4000002eb00472bde00f507b200eb
:1004a000602ce10004003a000059eb008301e900f0
:1004b000fdff3e00040037006128e100010032002a
:1004c0000082eb00040007001101ba000200e00006
:1004d000e8ff3a00000006003159ba008301e90044
:1004e0000c0032002159ba008301e90008003200f3
:1004f0000400e00003003a00e280400032a0b400b3
:10050000f5ff370011d9ba008301e900faff3a007c
:100510008100e800e180400032a0b4000000060045
:100520005cc2040001000000f0740400010000003f
:1005300004a6040001000000465a04000100000067
:10054000a256040001000000b2580400010000009f
:100550000a5504000100000090530400010000004f
:10056000ec56040001000000cc570400010000001c
:100570005a540400010000009459040001000000d6
:10058000fe5a040001000000bc9f040001000000ae
:100590006aa004000100000056a104000100000050
:1005a000bca1040001000000d6a10400010000006d
:1005b000eea1040001000000aea204000100000052
:1005c0004acc040001000000be7d040001000000d0
:1005d000b682040001000000607f040001000000fa
:1005e000e8b2040001000000a41e040001000000a5
:1005f00098ab040001000000be07040000000000ea
:100600005a0d040000000000560d04000000000018
:1006100000000400000000003200f8009101880092
:10062000023b88000008bb000500fc0051052000cb
:10063000313b8800a10a2000313b880061e7a80017
:1006400000000000000000003200f9000000060079
:100650000400a100010037000400a0003200f800ef
:100660009101880011002400013b8800f10f200057
:100670003208bb000400a700b20078000198bb005c
:100680008301e900faff3a00680151000400a70065
:1006900068015100680050001208bb00e2ff3700fb
:1006a000f30f20003200f80091018800310024008f
:1006b000013b88000208bb000388bb00daff37005b
:1006c0003200f800003b8800d7ff37008001eb00c4
:1006d00002003700817178008301e800828f5100a9
:1006e000fcff3a0000000600889fbe000004be0028
:1006f000f0dc81000000e000010032000000010099
:100700000800e00001003a00e8dc81000800be00bb
:1007100031020700000444001804e00004003a001d
:1007200000ba2300e0dc89000004eb00070037007a
:100730000800be003a020700000044001004e00078
:10074000010032000058eb00e0dc8900080078006e
:100750004f04be0000000600800178000001780010
:1007600031407800005978000004e000fcff3a00b6
:1007700003007800000006008000780001003700c8
:100780000000e8001004e000fdff3a000100500006
:1007900000000600800178000001780001003700a9
:1007a0000201e8001204e000fdff3a0002003700f9
:1007b0000201e8008100e80011407800004978005b
:1007c0000004e000faff3a00030078000000060091
:1007d000ec874700889fbe008a9fbe008c9fbe00aa
:1007e0008e1f7800f0b79f0081bf9f0082047800c1
:1007f00000047800010037000804e800184778007a
:100800000e00fb00180207000000e000faff3a00ab
:10081000d0c2b300804f57000500320000c0e9008d
:10082000804f570002003200004778000100370077
:100830000804e8000900e00045003500e18f54009d
:100840004300320040022000808f540040003c00f2
:100850000900e0000e003400f08f54001a003a0046
:1008600000c3b300984f100016003a009840900063
:1008700080c7b30080cf50000300320080c5b300b2
:1008800080cf50000f003a000884e8000e003700c7
:10089000a900200000c3b300984f10000a003a00de
:1008a0009840900080c7b30080cf50000400320011
:1008b0008900200080c5b30080cf500002003a00bc
:1008c0000884e800090120000805780000c3b3008f
:1008d000010037000a05e8009a4f1000fdff3200c2
:1008e0008a0578006066b8000e003700b0812300ea
:1008f00000425200c4ef9f006149b9000c00be00e5
:10090000e31107004fea97000401fb00cf91de00de
:100910008b05e800ccb79f00ddb79f0000064100c3
:10092000818649001b00fb00d7010700800078008a
:1009300009017800b0812300da0107000002780085
:100940000000e000e9ff3a008b0f540006003a0077
:100950000fb897000000e00029003200ffb09700b8
:1009600001087800260037008a805500607f230048
:1009700060c07c000000fb000080500016003300c7
:100980004240a9000f003c004fe997000200fb0025
:10099000cf80de000000560081805e00800f560090
:1009a000818f5e00070039006149b900e41107003a
:1009b0004fb19700dfb19700820f5000838f58002e
:1009c000050032002002200060db89000086eb0079
:1009d0008086eb0005003700d0c2b300804f57007f
:1009e00002003a0060061600e0861e008fb99700ec
:1009f0000300e000030032008b097800010037009b
:100a00006066b8000c00be004f0778004f06be00bd
:100a10004f05be004f04be00cf00b100000006002d
:100a2000881f7800d0d881000000e000010032006b
:100a300000000100a0d881000000e00001003200a9
:100a400000000100a0ad81000000e00001003200c4
:100a50000000010070ad81000000e00001003200e4
:100a600000000100c0b123001004e00026003a009d
:100a7000b0d88100c1d881000004eb00d26026000c
:100a80009301200082110700f2352f00e3c62300f6
:100a900000004100818049000804e800e80f54008c
:100aa000f6ff3a00b0d88900c1d88900685b2300fe
:100ab000d260260093012000b0d88100c1d8810007
:100ac00073110700f2352f00e3c623000000410038
:100ad00081804900b0d88900c1d88900009cbe003f
:100ae00060632300800f5400f1ff3a0090b1810051
:100af000a1b1810080ad890091ad890011c0b30022
:100b0000c0b1230001487800d26026009301200084
:100b1000b0d88100c1d881005d110700f2352f00e7
:100b2000e3c623000000410081804900b0d889005d
:100b3000c1d88900025b2300120178007f016100a7
:100b40004211dd00635b2300030141001202be007d
:100b500084ad890095ad89000089be0080ad81001b
:100b600091ad81004008de0000f0a1004f04780044
:100b700000000600881f780000047800d0d88100ab
:100b80000000e0000100320000000100c0b12300bd
:100b90000048eb00a0d881000000e0000100320016
:100ba000000001006140b800b0d88900c1d88900b8
:100bb0004f047800000006008001eb0008003700b9
:100bc000e342780063c278008301e80084cf5200da
:100bd000030032000080eb00040039001000050023
:100be000828f5100f6ff3a000000eb000000060083
:100bf000040037000204e0000a0032000000e800b0
:100c00008100e80010417800914f5100f9ff320057
:100c10000081eb0010407800914f50000400390033
:100c2000020037000001eb00010037001200200035
:100c300002007800000006008001eb00020037008f
:100c400061f079008301e800828f5100fcff3a00d7
:100c500000000600040037000204e00001003a0032
:100c6000000005000000e80010417800814f5100ad
:100c7000f9ff3a0000000600889fbe00810478005a
:100c8000114478000804e00009003a000c00370025
:100c90008001780009017800d24078000104e0006a
:100ca00007003200d3cf1000fbff32000000e80045
:100cb0008800fb00e7ff07000000e000f4ff3a00b7
:100cc0004f04be0000000600800178008002eb00a7
:100cd000010037008459780005035100828f5200cb
:100ce0000900320065c278008502e8000404e000d3
:100cf000f8ff3a0083007800068141008058eb003d
:100d0000828f5000fdff3a00000006008000eb00db
:100d10001001be000000eb000e0137001000fa00c9
:100d2000889fbe008a9fbe008c1f78000006780056
:100d3000c0019000c2002000110009008201d8000b
:100d4000000178006c10b9008081510002003b0066
:100d5000ec8141000201e9000200e00006003d00d4
:100d60000000280002005000dc009000808f50003e
:100d700008003d007a0037000200e0000500320064
:100d8000f0ff270002005000dc009000810f5000af
:100d9000730035005c049000080441008300780073
:100da00008007800cf0007000000e900cf80de00d7
:100db0000101780082017800041825001500200048
:100dc0006033b800fa130700f0b79f0081bf9f009f
:100dd00092bf9f00a3bf9f00cfc4de00090578002b
:100de0008a05780004382300151e20006033b800ff
:100df0000800be000a01be00ed1307007fb2970095
:100e00008fba97001fbb9700afbb97000404400048
:100e10008584480006054900878549003c0090000c
:100e2000cf80de00010178008201780004182500df
:100e3000150020006033b800dd13070008044000ef
:100e4000898448000a0549008b854900b8b79f008e
:100e5000c9b79f00dab79f00ebb79f002c00900046
:100e6000cf80de00010178008201780004e12000db
:100e7000050020006033b800cd1307000205be0056
:100e80000004be001c009000cf80de00010178004d
:100e900082017800c4032000050020006033b80000
:100ea000c313070008044000898448000a0549006c
:100eb0008b8549001c007800cf80de00010178009e
:100ec0008201780008044000898448000a0549002e
:100ed0008b8549003fb09700cfb097005fb1970076
:100ee000efb197000004440081844c0002054d00de
:100ef00083854d000800be000a01be00da1307001a
:100f00006011b800c51207000000e00014003500b1
:100f10000805be0000e82700a13a2800000454009c
:100f200081845c008c0890000801be000c007800f1
:100f3000880007000c0890000000e0000400340066
:100f400000c92800a13a28000004550081845d00f2
:100f5000fb0007000000540081805c0002003700a5
:100f60000080eb008080eb004f0678004f05be004c
:100f70004f04be000080fa0000000600881f7800c1
:100f8000020478002cff0700080040004f0478009e
:100f9000000006000000fa00881f780000047800b6
:100fa0003fb99700ea81570080007800e07b20007d
:100fb00036010700800078000000e00002003500e4
:100fc0000040eb0000f47800010078004f04780046
:100fd0000080fa0000000600000278000b003700d5
:100fe00001017800924178000304e00002003a0019
:100ff000040050000000060083cf520002003200bf
:101000000201e800f7ff37000000e8009042780096
:101010000504e000f2ff3a00040050000000060062
:10102000000278000700370083cf52000a00320028
:101030000201e800924178000304e000faff3a0060
:101040000000e800904278000504e000040032004f
:1010500001017800f7ff370004005000000006008f
:1010600004005000000006006900e10004003500a3
:101070006d00e100030034000002b1000100320005
:101080000000050010000500800078001104b10088
:10109000030035009101b10001003c000050a000a8
:1010a000000006008001eb00040037008301e80027
:1010b00090cf1000040032000000e800828f510041
:1010c000faff3a000000eb000000060050db810050
:1010d0000000e0000100320000000100c0b6230063
:1010e0000000060080017800010278000000e000a6
:1010f000060034000000e900420020001100090051
:101100000200d80000017800080037000001eb0061
:10111000e40f400005003c00640010004200200085
:10112000110009000200d8000001e800638061009e
:1011300003003a00819723000300e00001003a0019
:10114000019923000400420001004000100041000a
:10115000000006000800fa00889fbe008a9fbe00bb
:101160008c1f7800000678000104780000e8270052
:10117000a13a28000201400083814800f2b79f0095
:1011800083bf9f000c00e00005003a00e0d581001d
:10119000acaa23000000e0000100320000000100c2
:1011a000080e98007fb097008fb8970090bf9f00ff
:1011b000a1bf9f0002182500130020001fb8970050
:1011c000afb89700de0f07000005be0061004000c9
:1011d000e080480072002000030020005e1307003a
:1011e00060069800d2162000030020000a00be000e
:1011f0006813070000047800010037000804e900c4
:101200008000eb0008007800b6ff07006101b9001c
:10121000d016200000c0b9000200400083804800c2
:10122000800f5500818f5d00f4ff350000015500ef
:1012300081815d00580698000203780072069800cc
:101240006300640003003a00809723000800e00078
:1012500001003a000099230076024000c5002000fa
:101260008502e90024007800cf80de00800f510065
:10127000818f5900faff3500450698001400900050
:10128000000053000000e800300698000218250016
:10129000130020001fb89700afb897004c13070049
:1012a0000004be0002e1200003002000a40f07009c
:1012b0002006980002e12000030020000800be0084
:1012c000431307000004be00c203200003002000f7
:1012d0009b0f070010069800c203200003002000a7
:1012e0000800be003a130700000e78000c089000ba
:1012f0000000e0000c003d000c007800f801070041
:10130000000e98000000e0000700340000e120001b
:10131000010020007fb197008fb9970002004000c4
:1013200083804800a1ff37000c0078004f0678004a
:101330004f05be004f04be000080fa00000006000a
:101340000400fa00889fbe0030d981000000e00050
:101350000100320000000100a08381000000e000d5
:10136000010032000000010010d981000000e000ff
:101370000100320000000100f184810020d98100c9
:10138000810f50002f0032001104e00002003a00eb
:101390006c020700f084890066815700210020005c
:1013a000f0848100c302070000047800a20020003e
:1013b000e8805700df0207000001be00f0d8890076
:1013c00001d989004fb89700880050005fb8970096
:1013d000808f500009003a00c0ae2f00f1ff2f00af
:1013e000800f5100818f59000400340030512000db
:1013f000800f5100e08f5900030034006000b800f6
:10140000f0d8890001d98900f8d8810009d9810074
:1014100042062000030020000800be00dd12070085
:101420008202200003002000190f0700080050006e
:1014300089805800f0d8890001d98900f0848100a2
:1014400020d9890042fc2f00f3ff2f00f0d8810043
:1014500001d981000e0f07004f04be000080fa0082
:1014600000000600889fbe001004be00b4ff070005
:1014700008014000898148008080eb000000eb00fb
:1014800034ff07004f04be00000006006200fa00af
:10149000889fbe008a9fbe000004be00020578003f
:1014a0008300780060f92f000f004000b0000700b3
:1014b00088979f0099979f000000eb00a09f9f00d6
:1014c0009a4578000b80fb000000ea00cf04de00a4
:1014d00050c2b30080cf55000200320009047800ea
:1014e000010037000904e9000800e0000b003400a7
:1014f0001f909700080178008a0078008f9197006c
:101500000300010090979f000000e000930032006c
:101510002f98970000004400a09f9f0009054500f8
:1015200050c2b30080cf5500040032000b04e0002d
:10153000e3ff3a002f989700890037000000eb0086
:10154000809f9f00f0979f00e0979f00d0979f009b
:10155000c0979f00b0979f00c09f9f000900370071
:10156000a0ac23000080500000004000e1ab23004d
:10157000e10078004f98970001007000c09f9f0025
:101580000a05e8001a4478008800fb00a0ac23009c
:10159000b0fd0700800078000000e000f0ff3a0096
:1015a000a0c2b300804f54000e003a00bf889700dd
:1015b0000180e900b08f9f0010007800b09f9f006d
:1015c0000000e00005003d000000ea00b09f9f0021
:1015d0004f9897000020a000c09f9f000a05e800d8
:1015e00010003700b19f9f0003fd2f00f4ff27007c
:1015f000080037003f989700840f50000400320025
:101600006a00b9000000410003004000b09f9f0045
:101610000a05e8001a01fb0003004100e90f500031
:10162000f4ff3600e0c2b3009a4f1000040032000d
:101630000080eb00909f9f008a0478001c00370018
:101640008a04e800a0c2b300994f100007003a00d6
:10165000bf8897000180e900b08f9f0010007800dc
:10166000909f9f008a84e800110037000000eb0083
:10167000909f9f0003fd2f00f4ff27000800370014
:101680001f989700840f5000040032006a00b900d0
:101690000000410003004000909f9f008904e80083
:1016a0001901fb0003004100e90f5000f4ff360070
:1016b000194478008800fb0080b3230065fd070013
:1016c0000000e00002003a0000447800010037000a
:1016d0008904e800a87f9f0080c6b300804f5400b3
:1016e00004003a00994f14000a003a006640500086
:1016f00006003700c0c6b300804f540005003a0012
:10170000994f140003003a0065404000a07f9f00fd
:101710008904e8000905e800c8fb2f000f04440015
:1017200060f92f000f0040008085e80088017800f4
:1017300019417800800078000b007800460207000d
:101740000000e00005003a00880078000b007800f7
:101750000c0007000000e00059ff3d000080eb0096
:101760004f05be004f04be000080fa0000000600d6
:101770000200fa00f1bf9f00010878000080fa0023
:10178000000006000400fa00889fbe008a9fbe0089
:101790008c1f780000047800010678007008900023
:1017a000f8009000010050008808900001005000ef
:1017b0009808900001005000a80890000100500017
:1017c000b808900001005000c80890008105500042
:1017d0000002220090bf9f0000032300a0bf9f00d3
:1017e000081090000028a30018003a000b00e00049
:1017f000160034008b04780009057800e28f54004d
:10180000020036002a002000020037000900e00034
:101810000b00340058009000c80190000a017800c5
:10182000ee80570003000100500498000000e00023
:10183000960032006808900000004500600c980097
:101840008a8454004240a900ebff3c0078019000dc
:101850000200e0000b00340058009000c801900026
:101860008c00780003000100500498000000e000a4
:101870008600320068089000f800900001004000e7
:10188000600c9800880c90000900e00015003400fe
:1018900009057800e28f5400020036002a0020007b
:1018a000020037000900e0000b00340058009000ef
:1018b000c80190000a017800ec8057000300010085
:1018c000500498000000e0007000320068089000aa
:1018d00000004500600c98008a8454004240a90032
:1018e000ebff3c00180990000200e0000b00340000
:1018f000e800900058009000c8019000030001002b
:10190000500498000000e000600032006808900079
:101910009808900001004000600c9800a80c90000e
:101920000900e0001500340009057800e28f54003a
:10193000020036002a002000020037000900e00003
:101940000b00340058009000c80190000a01780094
:10195000ec80570003000100500498000000e000f4
:101960004a0032006808900000004500600c9800b2
:101970008a8454004240a900ebff3c0038099000e3
:101980000200e0000d003400e8009000180890000c
:101990008080400058009000c801900003000100c2
:1019a000500498000000e000380032006808900001
:1019b000b808900001004000600c9800c80c90002e
:1019c0000900e0001500340009057800e28f54009a
:1019d000020036002a002000020037000900e00063
:1019e0000b00340058009000c80190000a017800f4
:1019f000ec80570003000100500498000000e00054
:101a0000220032006808900000004500600c980039
:101a10008a8454004240a900ebff3c00081090006b
:101a20000028a3001b0032000b00e0001900340066
:101a30008b04780009057800e28f5400020036001c
:101a40002a002000020037000900e0000b003400eb
:101a500058009000c80190000a017800ee805700fd
:101a600003000100500498000000e000070032006d
:101a70006808900000004500600c98008a845400bb
:101a80004240a90003003400eaff37000080eb0069
:101a9000010037000000eb004f0678004f05be0044
:101aa0004f04be000080fa000000060000da81004a
:101ab0006f043700881f780068b423001804e00022
:101ac00004003a0060d520009d04070020c0b30048
:101ad000004c7800100020004f0478000000060041
:101ae000e6874700889fbe008a9fbe008c9fbe008d
:101af0008e1f78008005780020da81000000e00069
:101b0000010032000000010010dd81000000e00053
:101b10000100320000000100a08381000000e0000d
:101b20000100320000000100e184810010da810030
:101b3000810f50001b0032001104e0000e003a003b
:101b4000f08481001004e00002003a007d000700ec
:101b5000f08489007281570031002000f0848100f8
:101b6000d4000700e08489001004e0000200320085
:101b70000000e900e0848900e08481008f04070010
:101b8000000478000085eb000000e0005100320006
:101b900000da81003604070008da8900e084810059
:101ba00010da89005b0090008000eb004dfd07001b
:101bb000800678007b0090007800b9002b0190002f
:101bc0000000410080bf9f005b009000d216200003
:101bd0000280b9006169b9000000410081804900bc
:101be00061004000e08048007200200003002000f7
:101bf000d91007006e07400008da8100e9044400ac
:101c00000005eb0030003700640644005b019000e3
:101c10001c80fb00820f500029003c00b84090005f
:101c20008180fb00020078002efd07000d005000af
:101c3000a84090008180fb0081014000184278009c
:101c40000404e0000f0032000e8041008480fb009d
:101c50000100500072002000110009000200d800ad
:101c60000100e00002003a000100780001003700a6
:101c70006780100080814100e74f520001003e0064
:101c8000e78151007819b900184090000080fb00ee
:101c9000020040008fb89700808f50000d00350083
:101ca0001c467800994f560004003a000a00e000f4
:101cb00002003a001a002000010037000005eb0086
:101cc00065044400e584440000c0eb00984f100018
:101cd000cdff3a000a0078004f0778004f06be009b
:101ce0004f05be004f04be006f00b10000000600ab
:101cf000a08381000000e00001003200000001002c
:101d00006007230000000600881f780000047800a8
:101d100030d281000000e00001003200000001002c
:101d2000641b230088017800e2b62300a101200093
:101d300080a423009e04070080a423004f047800a1
:101d400000000600889fbe008a1f780040b723006d
:101d50001004e00053003a0020af2300d20c07002b
:101d600090db89000000e00046003a00b0af23009d
:101d7000cd0c070090db89000000e000410032003c
:101d8000000478003aad2300984478000900fb0075
:101d9000f60407000000e00038003200094d78002a
:101da0000801780032407800404598000a05e800b4
:101db00060ad2300800f550002003200020478005d
:101dc000f1ff370092407800d0c2b30080cf5000be
:101dd0000500320000c0e90080cf50000200320050
:101de00080407800010037000881e800b0ad230092
:101df00001487800924078000100fb0003fd2f00ad
:101e000003004000e90f50001c003e00c0ad23005d
:101e100001487800924090000100fb000300400060
:101e2000e90f500015003e00d0ad230001487800b6
:101e30000284e8001800fb00cc0407000000e0006a
:101e40000b0032007aad2300984478000900fb00b3
:101e5000c60407000000e00008003200095d7800b9
:101e60000804e800a0ad2300800f5500f6ff3a00fb
:101e700020ad23001804e000010032000000eb0058
:101e800090db890090db81000000e00002003a0056
:101e900080d6810090db890021c0b30040b72300c9
:101ea0000148780090db81004f0578004f04be00a8
:101eb00000000600889fbe008a9fbe000004be008e
:101ec00082057800104578000a04e0000100320025
:101ed0000004e8008a00fb00080078005dfb0700b2
:101ee0000000e00003003a000800780022fa070032
:101ef000000044000900e00002003c00880d500092
:101f0000080037001004e00003003a00800deb00e9
:101f100000047800030037008904e9000004e800a9
:101f2000ecff3700080078004f05be004f04be00ec
:101f3000000006000200fa00889fbe008a9fbe00d3
:101f40008c1f780080057800010578000206780073
:101f50000100e00001003a006c8557000b04780096
:101f6000010037000804e800984478000900fb00ed
:101f70003dfc07000000e000faff3a00d0c2b300c9
:101f800080cf54000500320000c0e90080cf54002b
:101f90000200320080447800010037000804e800a5
:101fa0000c0178008a0078000800780008fa070021
:101fb0000001be009a0f540001003a000b0d78009a
:101fc0009a8f550003003a00e00f5100e08f59004e
:101fd0000f003a00b0c2b30080cf540004003a00b2
:101fe000e00f5100e08f590015003d000800370058
:101ff000d0c2b30080cf540011003a00000020008e
:1020000001002800800f5100818f59000a0036001e
:102010002002200060db890002002000030028006d
:102020006b40400080cf540005003200f2ff2f00cb
:10203000f3ff27000200370060011100e081190062
:102040000200be004f0678004f05be004f04be00e0
:102050000080fa0000000600889fbe008a1f7800fa
:1020600000047800010278008244780003057800bb
:1020700070c6b300804f510021003c0000c0e90051
:10208000804f5100de003d0072405000804f5100f3
:102090004b0132000d003c006c405000804f51005d
:1020a0005e013c0000c0e900804f5100d4003d00bb
:1020b00050c2b300804f5100550132007c404000b7
:1020c000804f510055013a00cd00370010c6b300d3
:1020d000804f5100ca00320004003c0069405000ab
:1020e000804f51004d013a007200370030c6b300f6
:1020f000804f5100180032000040e800090037000e
:1021000000c7b300804f51001e01320008003c00a0
:1021100000c0e900804f5100e400320065003c003f
:102120006540500080cf54003c013a000f0037005a
:1021300050c7b300804f51005e0032006340400042
:10214000804f51005b00320065405000804f5100cd
:1021500032013a001a0137009180e900010a780043
:10216000780090009171780032013700a8609000eb
:10217000c0c6b30080cf50000a003a009400780037
:1021800064805000000a78001000be004f89de0015
:10219000cf91de000002be000203780082037800c7
:1021a0001300370010c7b30080cf50000300320087
:1021b000a0c6b30080cf500006003a00940078001b
:1021c00068805000000a78003002be002003be0084
:1021d000070037001480e900000a7800100078003a
:1021e00000027800cfa2de000503780086037800a5
:1021f000049cbe000694be00a860900080c6b30098
:1022000080cf50000e00320020c6b30080cf5000b7
:1022100005003a000400fb00cf80de0001017800d9
:10222000820178000a00370040c7b30080cf500019
:10223000030032006640400080cf500006003a00a4
:1022400004007800cf80de00010178008201780070
:10225000009cbe000294be003800be002801be00f3
:10226000e00f5000e08f5800e00f5900e08f590058
:1022700003003d0078009000d1c2b3000a0037008f
:10228000081090000018a3000300320078009000ae
:10229000b1c2b300040037000008a30053003200ad
:1022a0007800900001c2b300017578000000e800da
:1022b0004d003700a8609000c0c6b30080cf50002a
:1022c00006003a009400780064805000000a78000c
:1022d0001002be006033b8001300370010c7b3000f
:1022e00080cf500003003200a0c6b30080cf500062
:1022f00006003a009400780068805000000a7800d8
:102300003002be002003be00070037001480e90041
:10231000000a780010007800000278000500200014
:102320000600200007002000049cbe000694be00aa
:10233000a860900080c6b30080cf50000e0032002d
:1023400020c6b30080cf500005003a000480fb0097
:102350000100200002002000030020000a003700d6
:1023600040c7b30080cf50000300320066404000f9
:1023700080cf500006003a000400780001002000e1
:102380000200200003002000009cbe000294be005a
:10239000081090000038a300140032003800be007e
:1023a0002801be00e00f5000e08f5800e00f5900f8
:1023b000e08f59000d00320080c7b30080cf540079
:1023c0000300320080c5b30080cf540007003a00fc
:1023d0007800900001c3b300017578008000e80028
:1023e00009f578000080e8007004980078009000fb
:1023f0000000450060049800894078006d003700b7
:10240000a8609000c0c4b30080cf500006003a001e
:102410009400780068805000000a78005001be00e7
:102420004000be0005003700940078006480500032
:10243000000a78001000be00e80e0700009cbe00f5
:102440000294be00380090000000e00003003d0050
:1024500078009000d1c2b3000a0037000810900045
:102460000018a3000300320078009000b1c2b3004e
:10247000040037000008a300050032007800900037
:1024800001c2b300017578000000e80070049800f4
:1024900078009000000045006004980089407800b2
:1024a000080078003b03070064003700a860900034
:1024b000c0c6b30080cf5000250032000a003c00a7
:1024c0006440500080cf50002800320000c0e80077
:1024d00080cf5000140032006840500080cf500080
:1024e00022003a000a00370040c7b30080cf5000f6
:1024f0001e0032006640400080cf50001b003200ba
:102500006940500080cf500018003a0006003700a4
:102510001480e900000a780010007800485c900000
:1025200008487800450037001480e900000a780068
:102530001002780068089000cf80de00010178006a
:1025400082017800009abe000292be003b00370074
:102550001480e900000a78001001780068089000f3
:10256000cf80de000089be00340037001480e9000f
:10257000000a780010007800680c900008087800c5
:102580002e0037001180e9008008780010007800e4
:10259000cf80de000101780082017800009cbe003f
:1025a0000294be007800900000004500600498008e
:1025b00081c7b30008007800240007001f0037001f
:1025c0001480e900000a7800100078006004980088
:1025d000580990000200e00002003d0066f8070084
:1025e000090037008000eb00aefa07008000780099
:1025f0000000e000030032006800900000805000fe
:102600000100370058089000100c98000b003700ac
:10261000780090000275780006003700780090007e
:10262000800045000904e00001003a0059c2b300ef
:10263000894878000000e800700498000000eb0072
:102640004f0578004f04be00000006002f03b000c5
:10265000889fbe008a9fbe008c9fbe008e1f7800a0
:102660000007780050a32300c0b79f0080c5b300c7
:1026700080cf50000800320042a22300c2b79f0062
:102680007740400080cf500003003a0083002000d4
:10269000b3b79f000a00370080c7b30080cf500057
:1026a00005003200a4002000b4b79f0080c5b3002d
:1026b00080cf500002003a0005012000b5b79f000e
:1026c0003e04be002e05be0040c6b30080cf5000c1
:1026d000030032006540400080cf50000b003a00fc
:1026e000e00f5400e08f5c00e00f5d00e08f5d00c4
:1026f00006003d006000b8006011b80008045000fa
:10270000898458000a0559008b855900bfb397008a
:10271000e88f530003003200f08f530045003a0069
:10272000020037003600200001003700460020007c
:10273000e00f5400e08f5c00e00f5d00e08f5d0073
:1027400005003a005e08900081012000a1b79f00bb
:102750000000e000080032003fb197000200e900ed
:1027600008006000cfb197006340780090df9f00c1
:1027700074012000a4b79f00860278008502e9005a
:10278000050033008b05d1000a85d3008984d3006e
:102790000884d300f9ff3700089fbe000a97be00e7
:1027a000afb397000700e90021fc2f008f804000a5
:1027b000008240003fb197008202e900120037001a
:1027c000afb397008703e900a7b79f0000806200be
:1027d000cfb09700615278003e00be002e01be00cf
:1027e000860378008703e900050033008381d10068
:1027f0000281d3008180d3000080d300f9ff37002d
:10280000009fbe000297be003e00be002e01be002b
:10281000e00f5000e08f5800e00f5900e08f5900a2
:10282000d6003400afb397000700e000e4ff3c009f
:10283000d2003700ae60900080c6b30080cf500059
:102840000b00320006003c000104e00008003200ea
:102850006640500080cf500073003a0004003700fb
:10286000c0c6b30080cf50006f003a00310037007f
:10287000080178000800e00005003a005e089000ba
:1028800081012000a1b79f000000e0000900320094
:10289000bfb19700110009000381d8008000fd003e
:1028a0004fb297006440780090df9f0075012000d0
:1028b000a5b79f00bfb39700110009000781d8009a
:1028c00080017800afb097000100e90022fc2f00e2
:1028d0000f014100000241000c003700bfb2970019
:1028e000110009008501d80000017800afb39700fe
:1028f0008703e900a7b79f000590b9000080510049
:10290000cfb0970061527800820178000300e000a8
:10291000030034002fb197000200e000efff3c00fd
:1029200003007800cf80de0001017800820178008a
:102930003a0037000806be00e00f5400e08f5c004c
:1029400005003a005e08900083012000a3b79f00b5
:102950000000e000090032003fb297006121b90099
:102960000c00be009a0d0700cfb2970065407800ba
:1029700090df9f0077012000a7b79f003fb297002c
:102980006121b9000c00be00ed0907000006be0081
:10299000afb297000500e90027fc2f008f834300aa
:1029a0008083430097b79f00110037003fb1970025
:1029b0006114b9000801be000c00be00750d0700cf
:1029c0000005be00afb197008301e900a3b79f00e7
:1029d0000801be00ae090700000056001fb29700b4
:1029e000cfb297006552780094b79f000a06be00e8
:1029f000e00f5600e08f5e0003003400afb3970095
:102a00000700e000e9ff3c004feade00cfa2de0055
:102a10000c00be000401780084017800009fbe0015
:102a20000297be0055003700e00f5400e08f5c00b5
:102a3000e00f5d00e08f5d0005003a005e08900049
:102a400081012000a1b79f000000e0000d003200ce
:102a50003fb1970002027800cfa2de0005037800a4
:102a6000860378000800be000a01be00610b070063
:102a70004fb297006440780090df9f0075012000fe
:102a8000a5b79f003fb1970002027800cfa2de00f9
:102a900005037800860378000800be000a01be0026
:102aa0004d0b0700009fbe000297be00afb197001c
:102ab0000300e90024fc2f000f0242000006420040
:102ac00020003700bfb2970005047800cfc4de00b5
:102ad000090578008a0578000802be000a03be00d6
:102ae0005fa89700efa897007fa997008fb1970084
:102af000440b0700d0b79f00e1b79f00f2b79f00db
:102b000083bf9f00afb397008703e900a7b79f007b
:102b10000802be000a03be00a50c07005faa9700ca
:102b200000005200cfb29700655678005fb0970062
:102b3000efb097007fb197008fb99700009fbe005c
:102b40000297be003e00be002e01be00d0af9f0027
:102b5000e1af9f00f2af9f0083b79f00e00f5000ee
:102b6000e08f5800e00f5900e08f59000300340057
:102b7000afb097000100e000d2ff3c003fb19700ea
:102b8000e80f510013003a000e1090000038a30027
:102b900010003200afb19700f78f510006003e00e1
:102ba00024fc2f000f0242008300420000c3b30048
:102bb000914f100007003200afb297008502e90084
:102bc000a5b79f0000c3b30027fc2f008f834300ed
:102bd00080f37a00afb1970078811100120f98004e
:102be0006e00900024fc2f000f0242008300420080
:102bf00011f807001e0990005e089000800f510038
:102c000006003d0002005000000f98000e109000da
:102c10000040a100001798000f0037000000e000fe
:102c20000d003d000e10900074006000f00f500089
:102c300009003a007e089000fe009000010050005c
:102c40008e08900001005000020050004240a90090
:102c500001003400000f98004f0778004f06be00b7
:102c60004f05be004f04be002f03b1000000060058
:102c70000000e000310032008080e900910278001d
:102c8000e38f52002d0036000508a3002b003a0008
:102c9000c2da81000200e00002003200828f5000a0
:102ca0000400310002087800c1da890016003700fc
:102cb00003017800920190000300e000020032005e
:102cc000818f5100faff39001202780004004100a0
:102cd000808f500019003900810f500003003a0026
:102ce0000509420082007800070037000300e00079
:102cf0000300320005804000808f51000f00390032
:102d00009300980011019800110190000200e0006a
:102d10000a00320011804000820f500007003a0084
:102d200060b523000008eb0011009000110178004d
:102d300090084100100090009000980000000600ec
:102d400000017800000020000000e00008003200d0
:102d5000000080000000e000050032000000e900f3
:102d600000008800000040000100800002b07800f0
:102d70000000060080017800010178008000eb006f
:102d8000040037006a08b9000000420085004000d6
:102d90008301e8000201e900060033001302fb0092
:102da00005fd2f0005004200e90f5000f5ff360039
:102db0008080eb000100780000000600e8874700f3
:102dc000889fbe008a9fbe008c9fbe008e1f780029
:102dd00030477800800478000e04e0006c00320078
:102de0002a002000020037000800e8000a05e80079
:102df0008e00fb0097f70700000478000000e00059
:102e0000f9ff3a006550b9000b03070080bf9f002f
:102e1000800578000000e0005d0032000006e80058
:102e200000057800e8b79f0080c2b300994f1000fa
:102e30000c003a000900e80041002000cdff070027
:102e400041892f0001004000e0b79f004800330097
:102e5000d940900090c2b30080cf500044003a00a7
:102e6000e68444004fe89700e0ef9f00404598005b
:102e70002100200009007800beff0700e30645009e
:102e8000804ee9000980e80021002000b9ff07001a
:102e90000a84e800004ce900648144001200fb0051
:102ea0000003b100e90f500006003e0021002000a1
:102eb00002007800afff0700004e780066814400f2
:102ec00001003700004eeb00b0c0b3009d4f100072
:102ed00027003e0030c6b300984f100024003e008b
:102ee0009c4f100022003e0092407800b0c2b30018
:102ef00080cf50000500320000c0e80080cf5000b5
:102f000002003200004deb001000370092419000ab
:102f100000cdb30000c24100e64f520014003e0055
:102f200071c0b30000c3b30080cf51000100320074
:102f300084407800014d7800b0c2b300924f100079
:102f400001003a0067cd40000281e800124078009d
:102f50000004e00009003200650646008e4f500074
:102f600003003a00650545008204e800aeff370023
:102f70000fb897003eff07000500370065004500c9
:102f800000c8eb00efe897004140980001003700cf
:102f90008005eb000b0078004f0778004f06be005d
:102fa0004f05be004f04be008f00b10000000600b8
:102fb0008f02b000889fbe008a9fbe008c9fbe001b
:102fc0008e1f780080057800010678008204780062
:102fd000f3b79f0084bf9f0002007800e6f507006a
:102fe000000578000b0778008006eb004f003700e3
:102ff0008d06e9000d804600c2fc2f000f01410044
:103000008280e800e1047800e80041006105780072
:10301000994078000180fb000000ea004f04de00c8
:10302000888444000805550050c2b30080cf50008a
:1030300002003a000a00e00009003a00880f56003a
:103040004300390088805400080178000b007800a4
:10305000f9f607008885450008065600330037005a
:103060001944780050c4b300804f5400050032006a
:103070006a404000804f5400020032000044eb00e0
:10308000010037008904e800a4fd2f008f024200f0
:103090006e0252000f024200994178000841780008
:1030a0008fb897007fb09700b403070080017800c5
:1030b0000804e000010032000a05e9008904e80084
:1030c0000a05e9006fa197000200e0000900340042
:1030d000820f56001e003900830078000b00780034
:1030e000d5f607006fa097008085450000065600c2
:1030f0000e0037000a00e0000a003200e28f56009e
:1031000008003e000d804600c4fc2f000f02420064
:103110008480e80089307800e80042008a30780036
:103120008d06e8000205ea00830478000a00e0004a
:10313000b7ff3a000d00e000adff3a000c00e000e0
:10314000030032008d4d78000e80550001003700dd
:103150000000eb004f0778004f06be004f05be0091
:103160004f04be008f02b100000006001004b10041
:10317000070035009001b100040034007000b10078
:10318000030035009001b10001003c001000050073
:10319000000005008f04b000889fbe008a9fbe001b
:1031a0008c9fbe008e1f7800f0b79f0081f79f00b4
:1031b0005001be004000be00f0979f00819f9f001d
:1031c000929f9f00a39f9f0010c6b3000ff197002e
:1031d000804f51001600320010c4b300804f5100e0
:1031e00013003200ffb19700530890000000e00088
:1031f00003003d0060002000d00998000c0037005b
:103200000000e0000a003a0070c6b3000ff2970019
:10321000804f52000300320070c4b300804f520050
:1032200003003a0010002000ffb29700d00a980077
:10323000ffb09700c0fa2f000f0040003e050700c6
:1032400080017800e20f500015003a0030002000a5
:10325000ffb097009008980010c6b3000ff19700d8
:10326000804f51000a00320064404000804f5100fe
:10327000070032000040e800804f51000400320097
:10328000619423000040e800804f510001003a00a3
:10329000a1942300ffb1970063009000160037004f
:1032a0000000e00018003400300020007fb29700da
:1032b000100a980010c6b3008ff2970080cf52001a
:1032c0000a0032006440400080cf52000700320004
:1032d0000040e80080cf520004003200e194230057
:1032e0000040e80080cf520001003a002195230001
:1032f0007fb1970062009000315878003158780013
:1033000011487800c601370014c6b3008ff2970049
:1033100084cf52000300320010c4b30080cf5200ab
:1033200013003a007fb0970060019000820078009f
:1033300000c3b30080587800ffb29700e102980004
:1033400080c7b3008ff2970084cf52000100320093
:1033500080c5b300804878000280e800ffb0970085
:10336000e0009800710090000080e800f0009800f4
:103370000300e00005003a00e3979f0064fb2f0084
:103380000f01420003077800a00137006595230074
:10339000e5b79f0010c6b3008ff0970080cf5000b4
:1033a0000500320010c4b30080cf5000a7003a00df
:1033b00072962300e2b79f00ffb197005308900078
:1033c0001e0220000000e000010035000007e800b8
:1033d0000e02e800d4b79f006022b8006033b80046
:1033e0007f9097008f9897001f999700af9997004b
:1033f000190b0700ffb097003102be002103be0089
:103400000000e00004003d000400be000601be0014
:1034100003f0a200020037000400be000601be0057
:10342000f0979f00819f9f00929f9f00a39f9f0006
:103430006f91970064015100e2979f00c3fa2f003b
:103440008f8141006a8041000048eb006b8241009f
:10345000c4b79f0031003700c201200003002000e4
:10346000e5fa2f000f804200df0407007f949700e9
:103470008f9c97001f9d9700af9d97000800be008e
:103480000a01be00f90a07000006be005fb19700fe
:1034900067015100d2b79f004240a9000a003400e2
:1034a0001e0b07000002be000203be000800be00a3
:1034b0000a01be001c0b0700f0979f00819f9f0030
:1034c000929f9f00a39f9f00cfb19700678041000c
:1034d00071002000050037006f6066004c6add0057
:1034e0004466de000c067200c4eede00e00f5600fb
:1034f000e08f5e00050034008100e900e18f4000ac
:10350000f5ff3a00010037000060eb008100e900a0
:10351000fdff3b0067004000c0b79f00dfb297008f
:103520000500e000090034006022b8006033b800f4
:103530007f9097008f9897001f999700af999700f9
:10354000fb0a07000000e000c3ff3c0060fb2f0007
:103550008f0040004fb19700010051000000e900ca
:103560008e0f500001003d00000778000e00e000c3
:1035700003003d0073fb2f000f8141002c0037003a
:10358000800f570005003d000e8040001040900065
:10359000f3c0b300e74f500001003c008041eb0056
:1035a000c4fa2f000f0242000e0042006a004000e1
:1035b0008e007800010037000000e9008100e9007a
:1035c00010417800834f5100fbff32000107e800f3
:1035d000efcf510001003a000248e8000100e0008e
:1035e0000300350075fb2f000f81420006003700f5
:1035f0000e07e8006f90970064004000e0979f007e
:1036000061fb2f000f8140008e0041008e01780089
:10361000030037001100fb006fb29700e448780008
:103620008301e9008100e9000300e000f9ff3d00ab
:10363000ffb29700550890000000e000f3003d0045
:103640000e00e900d00a9800f00037007f94970040
:103650008f9c97001f9d9700af9d97006022b80038
:103660006033b8000800be000a01be007a0a0700f5
:103670000000e00005003d000bf0a200f8979f005d
:10368000899f9f009a9f9f00ab9f9f006f9097001c
:10369000725927000280b900026a28001300200036
:1036a0003c0a0700e4005000e1979f0015003b0032
:1036b000e3801000c0ff2f00008460000800ea00d3
:1036c000e0979f007f9097008f9897001f99970031
:1036d000af99970009842300070037000808a3006a
:1036e000030032003902be002903be00950a07001c
:1036f0000884d100e88444000800e000f7ff3c00a3
:103700001b0037000100e0001d003400c0ff2f0047
:1037100000806000e0979f00000478006000b8001f
:103720000200200003ff2300098423000700370064
:103730000808a300030032003902be002903be00be
:10374000800a07000884d100e88444000800e000f3
:10375000f7ff3c000002be000203be007f9097000e
:103760008f9897001f999700af999700ea0a070072
:10377000f0979f00819f9f00929f9f00a39f9f00b3
:10378000ffb097005109900060c6b3008ff1970019
:1037900080cf5100040032006100200060c4b300fb
:1037a00080cf510002003a006f929700ea00420079
:1037b00001074100f30f5700010034003e012000d3
:1037c00000c3b300e0779f0075fb2f008f8242009b
:1037d000b5b79f00330037000800be000a01be00e5
:1037e000220a07000006be00680757004240a900f1
:1037f0000e003400490a07000002be000203be00aa
:103800000800be000a01be00470a07006022b80097
:1038100046782d00771924004a0a0700f0979f0088
:10382000819f9f00929f9f00a39f9f003fb09700a2
:1038300068044000890020000d003700a40020002b
:10384000050020000c01be00e0fd2f000f0040002d
:10385000600407007fa897008fb097001fb1970002
:10386000afb1970004c3b300046441000006be007a
:10387000e00f5600e08f5e00060034008904e90086
:10388000e18f4400edff3a000200370000c3b300af
:10389000006478008904e900fcff3b0068044400f0
:1038a000b8b79f000e00e0000b0034007f94970033
:1038b0008f9c97001f9d9700af9d97006022b800d6
:1038c0006033b8000800be000a01be00180a0700f5
:1038d0000000e000c0ff3c00c5fa2f008f824200cc
:1038e0006a804200bfb09700008050008001e9006c
:1038f0006f919700e70041006b81420000c3b30065
:10390000010037000201e800924f1000fdff320075
:1039100074fb2f000f004200808040008280500026
:103920000080410002025000e1979f00ffb2970023
:10393000d509900060c6b3008ff2970080cf520087
:103940000300320060c4b30080cf520002003a008e
:103950008100e8000a00370050c6b3008ff09700de
:1039600080cf5000050032008000eb0050c4b3004f
:103970008ff2970080cf520001003a001100200022
:10398000018741008e0f520001003d0004077800be
:103990000e00e0001d003500840f570005003d00bb
:1039a000e2407f0095c3b30040c3b30080cf500016
:1039b00001003c0005c3b3000e0041008000e90097
:1039c0008e017800010037008100e9008301e900e1
:1039d00011427800854f5200fbff32000307e800d8
:1039e00090c3b30080cf520001003a008448e80041
:1039f0000300e00005003d000201e9000e07e800b9
:103a00006f9097000000e800e0979f006f9297008a
:103a10008e0178008ff097007fb097000a040700ae
:103a20004f0778004f06be004f05be004f04be0092
:103a30008f04b10000000600889fbe00e304400030
:103a40000900a100808f54004a003600e38f540023
:103a500001003e0049002000b2da81000200e000cf
:103a600002003200820078000c00370081b523008c
:103a700003003700908f5400230036008080e80058
:103a8000110078000000e000faff3a000f00370054
:103a9000908f54001c0036008080e80011007800f0
:103aa0000000e000faff3a001201780081b523001f
:103ab00003003700908f5400130036008080e80028
:103ac00011007800820f5000faff3a00a8da810056
:103ad000890f5400010031000904780008007800c3
:103ae0000d0507000000e00004003a00890f5400b3
:103af000200032000804d100f5ff370008187800d4
:103b00005bfc0700d4ff37001101780092017800b8
:103b100064805100890f50000300310012009000b2
:103b2000800878000700370009004100800878000d
:103b30009201900013009800110078001288140080
:103b400009097800910078000100e00005003200ca
:103b5000110090000000e000020032000180e80047
:103b6000010037000000eb00b0da89000280e800b5
:103b7000010037000000eb004f04be00000006000b
:103b8000889fbe008a9fbe008005780001047800ef
:103b900002057800830478008440780005017800ed
:103ba0000800e00001003d000004eb00f0c4b30099
:103bb00080cf500006003a002210900009017800e2
:103bc00088007800bbf807001900e0000e003c00f8
:103bd0008a0c78000a8145000049eb00a300200010
:103be00006003700110009000304d8008000fd0022
:103bf00004c3b30004614000010478000a05e90031
:103c0000f8ff3b00020078004f05be004f04be00e5
:103c10000000060080805000e78040007300200014
:103c2000110009008300d8008000fd000001510050
:103c300003014100110009000301d8000000060043
:103c4000889fbe00810478000204780010002000e4
:103c5000f0ff07000002780080017800088054001f
:103c60003017b00072002000110009000200d800d7
:103c7000d016200001004000811f780011000900cb
:103c80000200d80001017800cf007800b0162000b3
:103c9000800f540003003400e20f510004003a008a
:103ca00010003700a0162000800f540003003400dd
:103cb000e30f510004003a000a003700901620007c
:103cc000800f540002003400e40f51000500320060
:103cd0000180e900e20f500003003e008401e8008b
:103ce000010037008081eb00030078004f04be0024
:103cf00000000600881f780000047800d0ff07004d
:103d00000000e00002003a000804e9000300370068
:103d10000000e00001003c000804e8000800780012
:103d20004f047800000006000200fa00889fbe00e1
:103d30008a1f78008004780001047800a200200027
:103d4000e8805700080078007af807000002be00fb
:103d50004fb99700820f540035003200fac2b30009
:103d6000924f150032003a0059009000c1762000b1
:103d700001004000cf80de00800f5200818f5a008a
:103d800004003200840f5000858f58002a003d0047
:103d90002b0037000204e800a2002000e880570052
:103da0000800780063f807000003be004fba9700d0
:103db000840f54001e003200944f15001c003a007e
:103dc000490090000000e8006101b900820f530033
:103dd000838f5b0004003200860f5100878f5900eb
:103de00015003d00160037000400e800a200200086
:103df000e88057004ff807000002be004fb8970058
:103e0000800f54000a003200390090006101b900af
:103e10000000eb00820f5200838f5a00090032002d
:103e2000840f5100858f590003003d0004003700c6
:103e300020002000030037001000200001003700a0
:103e40000080eb004f0578004f04be000080fa00b0
:103e5000000006000200fa00889fbe008a9fbe0094
:103e60008c1f780080057800010678000005eb00c3
:103e7000340037008804e8006c81570011002000ee
:103e8000090078000bf80700800078000b0078002c
:103e9000a5ff07000001780098407800d0c2b30069
:103ea00080cf500004003a000200e800e10f50000b
:103eb00023003e0005003700b0c2b30080cf5000a1
:103ec0001f003a00e10f51001d003e006c815700b9
:103ed0002100200009007800f6f7070000017800b3
:103ee00010407800984f500004003a009240900033
:103ef000a0c2b30080cf50001a00320082007800c8
:103f00000b00780088ff07000001780098407800d7
:103f1000d0c2b30080cf500003003a00e10f51003f
:103f200007003e000f003700b0c2b30080cf500042
:103f300003003a000200e800e10f500009003600db
:103f40000a05e8001c1090006c8157008a00780078
:103f5000d8f70700000478001004e000c5ff3a001d
:103f6000289d2300080078004f0678004f05be000a
:103f70004f04be000080fa0000000600ea874700f8
:103f8000889fbe008a9fbe008c9fbe008e1f780057
:103f900080047800810578000246780004057800e6
:103fa000050778000300fb00cf80de005002b1005f
:103fb0000180b10052052000820f5000e08f5800b0
:103fc000d0013e0000600100ca013700cd0137007a
:103fd000cc013700cb013700ca013700c9013700d7
:103fe000c8013700c7013700c6013700c5013700d7
:103ff000c4013700c3013700c2013700c1013700d7
:10400000c0013700bf013700be013700bd013700d6
:10401000bc013700bb013700ba013700b9013700d6
:10402000b8013700b7013700b6013700b5013700d6
:10403000b4013700b30137003d00370044003700ba
:10404000510037006c003700ae0137007c003700ac
:104050008a0037009400370095003700a901370027
:10406000a8013700a7013700a1003700a5013700dc
:10407000a4013700a3013700a2013700b3003700c5
:10408000b6003700bf003700c7003700ca0037004e
:10409000e7003700f5003700470137008901370096
:1040a00098013700970137009601370095013700d6
:1040b000940137009301370019003700760037006c
:1040c00028003700440037004f0037008d013700cb
:1040d0005f003700700037008a0137007a00370030
:1040e00088013700870137007e00370082003700e3
:1040f0008401370084003700820137008a003700ce
:10410000800137009b003700a20037007d01370097
:10411000c1003700cc003700df0037004601370010
:10412000e9009000818040002b00900004003700df
:10413000e9009000818040008100e8003b00900091
:104140000a0178005bf7070000047800730137006c
:10415000c9009000818040008100e8006b00900061
:10416000f7ff370050c4b300804f560002003a00fa
:104170005b089000010037000b0890000a017800ee
:104180008000eb00c100370050c4b300804f5600e0
:104190000a003a008b007800090078002dff070024
:1041a0000000e8000a0178003100200041f7070014
:1041b000000478001004e00058013a00d900900093
:1041c00042062000110009008200d8008000fd0096
:1041d000f380400001003700b90090008b027800a6
:1041e0000c4278008a017800220020000e0078003e
:1041f00063fe0700d4ff370080ff2f00000a78001d
:10420000589d230045013700b90090008b027800cb
:104210000c4278008a017800220020000e0078000d
:1042200057fe07000004780000c3b3009e4f100043
:104230003a013a0070405000004f780037013700d3
:1042400080ff2f00000a7800e89d2300330137002b
:1042500079019000e900900059009000a5fe070048
:1042600042062000110009000200d8000100e00011
:10427000daff3d0082804000d8ff370079019000ce
:10428000e9009000590090009afe0700c1762000d6
:1042900081004000db003700c900900081804000b1
:1042a0005b009000a6ff3700a9009000cbff37000d
:1042b000290090006b004000c2002000110009009e
:1042c0000200d80008003700f90090008100e800e3
:1042d0008b0278000c4278008a01780032002000be
:1042e000c2ff3700c90090008100e800bbff370023
:1042f00099009000b9ff370010002000000a7800f4
:10430000789e2300050137008000eb002900900013
:10431000eb0f500001003400110020000a0178006a
:104320001b00780087ff370050c4b300804f560051
:1043300002003a000b109000010037003b0890008b
:104340000a0178003100200050003700b0ff2f0034
:10435000000a7800989e2300f00037008b02780056
:104360000c4278008a017800220020009900780031
:104370009eff370010002000000a7800f89e2300fe
:10438000e600370080ff2f00000a7800189f230006
:10439000e2003700e90090000100e0001f003a0051
:1043a000710020001d00370079019000e9009000a5
:1043b0000000eb0021003700f9069000690490002e
:1043c000d90490000d017800880078000900780079
:1043d0001bfe07000000e00006003a008d005400bc
:1043e000e78040000900e900d216200014fe070013
:1043f000030037000000e00001003c001000200036
:104400008b0278000c4278008a017800220020009c
:104410008000780075ff3700e90090008b0278007b
:104420000c4278008a017800120020006fff3700ec
:1044300079019000e900900010002000f5fd0700d0
:104440008000780065ff370050c4b300804f5600ed
:1044500002003a006b089000010037001b08900032
:104460000a017800110020000800370050c4b30092
:10447000804f560002003a007b0890000100370090
:104480002b0890000a0178002100200089f607001f
:1044900000047800660037005900900042062000b2
:1044a000110009000200d800e1b79f000100e00000
:1044b00002003d0082804000e1b79f0050c4b3007d
:1044c000804f560035003a008b00780009007800d4
:1044d00060fe0700800678000081e80082bf9f0030
:1044e0001204e0002d00320059049000c076200034
:1044f00000044400cfc4de008d01e800f3b79f0044
:104500000a017800110020000300780069f6070016
:10451000a20020008000eb0086f607000004540093
:1045200081845c00d0c2b3009d4f100002003a00ad
:1045300060041400e0841c00a2002000f6805700f4
:104540000fb897007bf607000800400089804800fc
:104550005fb197008fb99700828f51000f00320032
:1045600012417800ffb19700934f51000b003a00c1
:10457000e0b79f0018002000010037000804e800a1
:10458000a20020000300200082060700e00f500078
:10459000e08f5800f9ff3c000100370028002000a0
:1045a0008b0278000c4278008a01780008017800bc
:1045b000efb097000dff370050c4b300804f560096
:1045c0000d003a008b0078000900780021fe0700fa
:1045d0000000e8000a0178004100200035f60700dd
:1045e00000047800b0c3b300984f100002003200fe
:1045f0001a00e00008003a00d9009000c0762000c0
:10460000808040008b0278000c4278008a0178009c
:1046100042002000f5fe3700b103200008007800ba
:104620008cf107000000e00001003200080d50008e
:104630001a0dea00390037004b1090001004e0001a
:1046400001003a00bff507000a01780021002000b0
:1046500018f60700000478001a00e0002f0034006c
:10466000090890000000e0002c003400a2002000a7
:104670008000eb00080078002ef6070041062000bd
:104680008080400003003300b0c2b300004f7800c8
:1046900003003700d0c2b300004f78008100ea0069
:1046a0000e00e8008b0278000c4278008a01780046
:1046b0004200200032fd07000004e9001a0de80066
:1046c000160037000004eb00090890000000e0002d
:1046d00001003400180020004b1090001004e0008e
:1046e00001003a0097f507000a0178008800780079
:1046f00094fe370010002000000a7800a89f2300d5
:1047000006003700034f78000040eb001047980088
:104710000e04780020002000000d780008007800ca
:104720004f0778004f06be004f05be004f04be0085
:10473000af00b10000000600889fbe008004780032
:104740006684400000ff2700180060004401de007e
:10475000f07f2000800f51000e003a00800ceb002b
:10476000180478006f0064001c003a0021009000db
:104770000000e00019003a00110090000000e00085
:1047800016003a00100020001100e0001400320072
:10479000120037000200e00005003c000100780034
:1047a000e4010700000178000000e00008003c0080
:1047b000f00028001800600001fe2300010c7000ca
:1047c00020c02f00800c41000080eb000400370067
:1047d000800ceb000000eb000100370020002000ff
:1047e0004f04be0000000600889fbe008a1f7800ac
:1047f0008c9fbe00000478000206be00e604400064
:10480000190178000200d0004505de008a0078001a
:10481000f07f2000800f55000c003a006f0061000f
:1048200067003a00280090000000e00064003a00b1
:10483000180090000000e00061003a001000200025
:104840001800e0005f0032005d0037000a00e00061
:1048500007003a0008007800b601070080007800e1
:104860000000e000020034000a0078005500370024
:104870006108b9000c0140008d814800e07f2000f4
:10488000800f5100e08f59000d0034001900e00046
:1048900004003d006000b8000200200003ff2f006c
:1048a000030037006000b8000200200003ff27006b
:1048b000009cbe000294be001000200041003700a2
:1048c000e00f5100e08f590005003400f00028008f
:1048d00019006000c410dd00810c70003600370044
:1048e0001900780001002800010360006f006000db
:1048f0000040a000800c780061015100e081590067
:10490000c0fc2f00f1ff2f00800f5100818f590054
:1049100006003d00860c78000000eb0020049800a3
:1049200010049800000c7800260037000200780080
:104930000881e800e400440005003700120c78000c
:104940001109780099087800800ceb007000400095
:10495000f00f4000f9ff34008002ea001500320039
:104960008881e80070821200980078008508de00d7
:10497000130078000400dd00008c70006401440026
:10498000930078008508de00120078000400dd0046
:1049900080897000920078008508de001900780098
:1049a0000400dd0000897000190078000500de00b9
:1049b000800c7800990c73000080eb000100370038
:1049c000200020004f06be004f0578004f04be00b7
:1049d000000006000400fa00889fbe008a9fbe0007
:1049e0008c1f78000006780092bf9f00a3bf9f0035
:1049f0000404be000401be001fb89700afb89700c2
:104a0000640507000005be000001be000800be00ee
:104a10009f0107001fb99700afb997000000510030
:104a20008180590020069800310698000a8ebe0049
:104a30000c0078004f0678004f05be004f04be0002
:104a40000080fa00000006000e00fa00889fbe00f9
:104a50008a9fbe008c9fbe0000047800014578004c
:104a60000206780083047800840678000300e000e2
:104a700002003c00190020006cba230060c6b3009d
:104a8000804f55000e00320060c4b300804f5500c7
:104a90000b00320070c6b300804f55000300320097
:104aa00070c4b300804f55009c003a00e48f46006c
:104ab0008000350058089000808f56007d003d0032
:104ac0008d05e80060c6b300804f5500100032002d
:104ad00060c4b300804f55000d00320008109000f4
:104ae0000038a30004003a0058089000808f54005a
:104af00001003d00590c9800580890000b00500030
:104b0000500c980002003b000000eb00500c980095
:104b10000b00e00027003c0018099000680090009e
:104b200001c3b300017079008201e800130c980002
:104b3000580890000000e00003003c0008109000be
:104b40000038a3000500320068009000e1c2b30005
:104b500001f079000280e800100c9800d80890005d
:104b60000b00ea00808f500001003d008105ea0043
:104b70000b00ea00200c980001804500500c9800c2
:104b8000890f500001003d0080047800390c980026
:104b9000680090009808900001004000090178002a
:104ba0008c00780024f0070058089000090050009d
:104bb0001a00370098089000680090008b8f54000e
:104bc00018003d0001004000090178008c007800c9
:104bd00019f007001808900000814400120c98009a
:104be00009805500200c9800580890000000e00053
:104bf00003003c00081090000038a30006003200bb
:104c0000e8009000e0c2b30080707900380890009e
:104c10000000e800300c980058089000400c980004
:104c2000a6003700010040000b0178008c007800de
:104c300001f007001808900000814500120c980050
:104c40008b845400580890000000e00003003c00f2
:104c5000081090000038a3000500320068009000a2
:104c6000e1c2b300017079000200e800100c980066
:104c700058089000890f500001003d008004780022
:104c80006800900098089000010040008b004600ea
:104c900009017800e8ef0700180890000080440040
:104ca000100c98005808900009005000200c980043
:104cb0008200370070c6b300804f550003003200f9
:104cc00070c4b300804f550014003a00580890009b
:104cd000808f540004003d00081090000038a300ad
:104ce00001003a00590c9800580890000000e900b3
:104cf000500c980002003b000000eb00500c9800a4
:104d000070c6b300804f550002003a005ac6b30087
:104d10000b0037005ac4b3000900370010c6b300b7
:104d2000804f550002003a000ac7b3000400370064
:104d300010c4b300804f550001003a000ac5b3000b
:104d400018099000680090003c7079008201e8002a
:104d5000130c98000c027800580890000000e00046
:104d600003003c00081090000038a3001700320038
:104d7000e8009000e0c2b30080f079008280e80093
:104d8000110c9800580890000000e0000f0034005b
:104d90008904e900890f500001003d00800478007b
:104da00068009000008040000901780084007800cd
:104db000a1ef07001808900000804400100c980034
:104dc0005808900009005000200c980068009000de
:104dd00098089000010040000086e8000a5878001a
:104de000800078000d00e00004003500b0c2b30080
:104df000804878008c04780004003700d0c2b300eb
:104e0000804878008c0478008d06ea008005eb006d
:104e10000a003700a20020008d0078007080570043
:104e2000900007000fb897009fb897007a8155004f
:104e300001f17f008b05e800800678000d00e0009e
:104e4000f4ff3c00e18f550009003c0050c6b30060
:104e5000804f55000300320050c4b300804f55000e
:104e600003003a0000c3b300005e78008c047800b1
:104e70000b00e000040032000b00e900fa8057004c
:104e8000008040000600370000c3b300805c78005b
:104e9000050037008b05e90002c3b300a05c4100a8
:104ea0000b00e000fbff3c006800900098089000b9
:104eb0000100400000805400300c98000810900061
:104ec00074006000f00f50000e003a00780090006f
:104ed0009808900001004000a808900001004000e0
:104ee000b808900001004000c80890008100400010
:104ef00078089000808f500002003d0001005000b3
:104f0000000c98004f06be004f05be004f04be00c7
:104f10000080fa00000006000000e00003003400fa
:104f200062000700e10f400001003a000000eb00c2
:104f30000000060000017800e60140001300780040
:104f400001002800810360006f0060008009780084
:104f500012003a00220090000000e0000f003a002a
:104f6000120090000000e0000c003a001600200043
:104f70001200e0003800320008003700e400410071
:104f8000910978000280e800900878001208780003
:104f90000009eb00700353000100370016002000e9
:104fa0001300e000f5ff3200e40241000282e80055
:104fb0001100370080004000150078004f00de002f
:104fc000808970009500780081804000140078008e
:104fd0004f00de00808a70009400780081804000dd
:104fe000120078004f00de00008a70001200780086
:104ff000000940000603e90013007800ef0f50009d
:10500000ecff36008282e800640241000e003700a7
:105010009200d100150078004f00dd00008970007b
:105020009500d100140078004f00dd00808a7000e8
:105030009400d100130078004f00dd00008a70005a
:105040009309d1000603e80013007800ff0f500019
:10505000efff3e00ef0960009389730006007800bf
:105060000000060002027800809fbe0011000900c7
:105070008200d800000178004f00be0002a2b900f3
:10508000848050001100980002087800000006009b
:10509000020ab900001bb9000200b80081004200fa
:1050a000810043000000060000000500889fbe004c
:1050b0008004780050dd81000000e00003003a0029
:1050c000100007000000e0000a00350050dd8100fc
:1050d0000900e00002003a000004780006003700f2
:1050e0000004780009004000060007000000e0000e
:1050f00001003d000084eb00080078004f04be0072
:1051000000000600800078000000e00004003a0083
:10511000c0ba230050dd8900010178000600370085
:105120000081eb00c0f72300808f500002003e009a
:1051300051dd89000001eb0002007800000006004c
:105140006022b800060220000000d0008180d2005a
:105150000482d2008582d2000000a0000202520028
:1051600083825a00030031000202420083824a0017
:105170000000a1000603e900f3ff3a00000006006a
:10518000889fbe008a9fbe008c1f7800bc04070069
:10519000c304330003866c006450e1002e0032002b
:1051a0006420e100330032006150e1002f00320042
:1051b0006120e1003100320085855500eb07b00029
:1051c00009002000080420000500370008044400fe
:1051d00089844c000a0031000603430087834b009a
:1051e0000001530081815b00f8ff33000203be0021
:1051f0000800a0000804440089844c00f6ff390030
:10520000c639dd0083017300010032001300200065
:105210008904d1000884d3000998a3000500320056
:105220000800a7000300a0008904d1000884d3006f
:105230008b05e8008904d1000884d3000001eb004d
:105240000281d200a604070001f0a1000cf0a70023
:1052500001f0a0009b0437006420e1009d043200af
:105260000801be000200be00f7ff37006120e10028
:10527000980432006000b800f3ff370000002000ff
:1052800001f82700f0ff3700f4ff2f00ba043700c1
:105290000001be00d30407000470a70003f0a100c2
:1052a00003f8a30013003a006509b10010003200b2
:1052b000090035006928e1000200350001002800de
:1052c0000000050000004000818048008502e900e0
:1052d000fcff3a0000000600f88f42000500350090
:1052e0008100d1000080d3008502e800fcff3a0075
:1052f000000006008000eb0000000500889fbe0053
:105300008a9fbe00010578000100e000040035001e
:1053100008003c000000e0002000320005003700db
:1053200060001000e080180002003b0001f02c003b
:105330001a0037000004be006011b8006b0920009d
:105340000982cf00020039000882cf000441b0007a
:10535000694252000e00320008003b008281710059
:10536000610164008904d1000884d3008b05e80042
:105370000442e800f9ff3a00050037000804440041
:1053800089844c008b05e9000442e900fbff3a00e8
:10539000530407000af0a70001f0a0004f05be006b
:1053a0004f04be000000060003f0a200889fbe006c
:1053b0008a9fbe008c1f7800310407003804330038
:1053c0006450e1004f0032006420e10052003200de
:1053d00003826c0007003b000905d0000306d000e3
:1053e000820f54000c065d000200390002003200fa
:1053f00089017800030678008582550004003d008d
:105400000003fd008103fd008502ea008b85420058
:10541000840f720002003b0060001000e080180062
:105420006011b8000005eb007a28e1000a0039009d
:1054300006007800c75ddd00f707b20087807500c1
:105440002d003700828171000a017800610560003b
:105450008180d1000080d3008502e900f9ff3b0084
:10546000060440008784480002003b0060041400ea
:10547000e0841c000988a300070032008a817100c3
:1054800082817100610164008904d1000884d30025
:105490008b05e800170037000978a30013003a00d5
:1054a0000b00e000130034008b05e9000804440001
:1054b00089844c000a4474000978a3000d003a0066
:1054c0000b00e000070034008b05e90008044400ed
:1054d00089844c0001003a000b0020000978a300e9
:1054e000f7ff32000001eb000200370082817100fb
:1054f0000a017800fa0307000cf0a70001f0a000f1
:10550000f00337006420e10002003a00838f6c0052
:10551000f00333000801be000200be00e9033700bb
:10552000889fbe008a9fbe008c1f7800d4030700ae
:10553000db03330003866c006450e100240032007a
:105540006420e100270032006150e10022003200b7
:105550006120e100210032008b854200eb07b100a1
:105560000134b800003ab8000804420089844a00b7
:10557000013ab8000030b8008880400009014a00b4
:10558000040033000000400081804800020149000f
:105590008b05e900c909dd008301700001003200bc
:1055a00013002000c814de004814dd004709de00a7
:1055b0001200b200c808de0008847000c8030700ab
:1055c00001f0a1000cf0a70001f0a000bd0337001e
:1055d0006120e100bf0332000801be000200be00ee
:1055e000f7ff37006150e100fcff3a00b9033700d4
:1055f000881f7800000478005001be004000be0003
:105600000400400085804800060149008781490068
:10561000009cbe000294be000400e1000588e10089
:105620000690e1000798e1000200310068004400a4
:105630001008e8004f04780000000600f4874700d7
:10564000889fbe008a9fbe008c9fbe008e1f780080
:105650000205be000004be00d4b79f00e5b79f005e
:10566000f6b79f0087bf9f000000eb00c0b79f0008
:10567000b0b79f00a0b79f0090b79f0080b79f0072
:105680000d042000bfb097004fb09700000140000c
:105690000000e0000f003d004f08de000000710038
:1056a000c0b79f009e00070001003d0012002000cf
:1056b000a100070001003d0012002000a600070025
:1056c000b1000700b60007000f004000c8ff070048
:1056d000220037004f08de0000067100ccb79f00a3
:1056e0008f00070001003d0012002000920007001b
:1056f00001003d001200200097000700a2000700f3
:105700000fb297009fb297002fb39700bfb39700d7
:10571000a90007000000520081805a0002015b00ce
:1057200083815b0080b79f0091b79f00a2b79f0065
:10573000b3b79f000007eb009f0007000020e100c7
:1057400001a8e10002b0e10003b8e100010031006e
:105750001e0020000e005600c0b79f004fb29700f9
:105760000400e000070035001000200001002000c8
:105770006011b80008047000898470000a05710087
:105780008b8571008d06e900beff3a000400e00041
:1057900003003d00820007000f00400094ff070057
:1057a0004fa897000000e00004003a000fb49700f3
:1057b0009fb497002fb59700bfb5970094000700de
:1057c0004f0778004f06be004f05be004f04be00d5
:1057d0004f01b10000000600881f7800180020006b
:1057e000881f780095ff07008f87e9004f04780035
:1057f00000000600801feb0090ff07008f87e90084
:1058000000000600889fbe008a9fbe008c1f7800a3
:105810006e00070007003d0073000700e00f5b000b
:10582000e08f5b0007003d00320007000006eb0040
:10583000040037003400070002003d002a00070082
:105840001c00200072000700e3ff07000203be00f7
:105850000002be000c00e000010032002200070040
:105860000400be000601be004f0678004f05be00d2
:105870004f04be0000000600889fbe008a9fbe0045
:105880008c1f78005100070005003d0056000700fe
:10589000e00f5b00e08f5b0006003d000400370076
:1058a0001900070003003d006000b8006011b80057
:1058b0001000070056000700ceff07000203be00dd
:1058c0000002be000c00e0000100320006000700ec
:1058d0000400be000601be004f0678004f05be0062
:1058e0004f04be00000006006000b8006011b80060
:1058f000000037000402500085825800060359005a
:1059000087835900000006000006eb00e00f5200fc
:10591000e08f5a00e00f5b00e08f5b0000000600a4
:105920000180400090b79f000001eb008fb097000e
:105930000100e000000006000200700090b79f0028
:105940000180400080b79f000001eb00ffa8970096
:105950000100e000000006000200700080b79f0018
:10596000018040006faa9700cf20de000100700088
:10597000f0af9f0004024200250007004f18de0030
:105980000002720000000600e4af9f00080444001b
:1059900089844c000a054d008b854d0000000600ef
:1059a0003fb29700cfb297005fb39700efb3970075
:1059b00000fe2f00000006003fb09700cfb0970018
:1059c0005fb19700efb19700000006000205be002e
:1059d0000004be00e00f5000e08f5800e00f5900b7
:1059e000e08f5900000006006000b8006011b800a8
:1059f00008045000898458000a0559008b85590015
:105a00001c002000e00f5200e08f5a00000006004a
:105a10000800be000a01be000000060014002000bd
:105a2000d50237000c00fa00889fbe008a9fbe0096
:105a30008c9fbe00920207000206be00840578001b
:105a40000200be0002002000fb02070005003a0031
:105a50008b02b30012002000f702070001003a0099
:105a6000f8856d000c01be00c60007000800be00ee
:105a70009b0032000b08a3009e003a000df0a70027
:105a80000be0a00009f0a7000bf0a00009f0a100b6
:105a90000801be00bb0007000bf0a6009500320015
:105aa00001003c000bd0a0008acf7500b20033008b
:105ab0006000b8006250e10099003900a1003e008a
:105ac0000b28a300a2003a000bf8a3000600320046
:105ad0000b58a300a70032000801be00a900070070
:105ae0000800be00940032000800be00f902070062
:105af0000004be00050578000bf0a7000b30a600df
:105b00000bf0a1005b079800324f200053f32300f5
:105b1000c2ff070005003d000800be001200200083
:105b2000f90207000004be000a05e9004a079800d0
:105b30006150b900f1fd0700008fbe000c01be00ee
:105b400077fe070012030700300798000100e0000d
:105b500002003d0060001000e0801800f2ff270006
:105b6000820f5000e08f580064003e000c00be0021
:105b70000703070020079800f2072000820f50005b
:105b8000e08f580005003c0012f82f00f3ff2f00b3
:105b9000820f5000838f580009003d000a00e0008a
:105ba0000300320001003c000201ea000205780017
:105bb0006000b800200798003a07980019003700e5
:105bc0003e0090006100b900ccfd0700809fbe0040
:105bd0000c00be004109dd004811de007208b10072
:105be000950207000005be001e01be004cfe070026
:105bf0004f01be00ecfd0700809fbe000c00be0000
:105c00000a01be00e8fd07001e01be0044fe0700b9
:105c10004f01be00e5fd07008221270013f323009a
:105c20003ffe07000005be002e0090006100b90095
:105c3000b2fd070001f0a2000c01be00dbfd070071
:105c40000006be000800be00f20207000c01be0004
:105c500033fe07000a01be00d4fd0700809fbe008e
:105c60004a0007002e0590000af0a7000a05ea0086
:105c7000050037000800be000801be0028fe07002e
:105c80000004be000c00be000801be000a00a70010
:105c900023fe07000006be000a05d100f5ff3a000a
:105ca0005e01900002e0a600030037000001be0084
:105cb0003600070032fd07000004be004f00be00a2
:105cc0002b0307000801be0015fe07003e019000ef
:105cd0008d020700de0590000bf0a70001f0a20086
:105ce0004f06be004f05be004f04be000080fa0004
:105cf0000000060025000700f9ff37002700070015
:105d00006000b8000bd0a7000bc0a0000be0a700fc
:105d10000bc0a2000bc0a70001f82700f0ff37005e
:105d20000df8a300020032001e0007001900070052
:105d30000bf8a300eaff32000b30a70001f0a2002d
:105d4000e7ff37000df8a300f9ff3a00f7ff37002f
:105d50000801be000b000700e6ff320001003c0016
:105d60000df0a2006000b8000df0a70009000700c8
:105d7000dbff37000b000700f1ff2700f0ff2f00cb
:105d8000d7ff37000100070024ff370001f8230088
:105d90000000050001f82700000005002002200097
:105da000010037001002200060db890000000600bf
:105db000889fbe008a9fbe008c1f78000205be002f
:105dc0000004be000006eb00e00f5000e08f58001a
:105dd000e00f5900e08f590007003d006000b80057
:105de0006011b80008045000898458000a05590061
:105df0008b8559001c002000e00f5200e08f5a00f4
:105e0000e00f5b00e08f5b0002003d000f00070029
:105e10000c00a2000800be000a01be003603070005
:105e20000203be000002be000c00e00001003200d0
:105e3000060007000400be000601be004f06780001
:105e40004f05be004f04be00000006006000b80011
:105e50006011b80004025000858258000603590002
:105e60008783590000000600889fbe008a9fbe00fd
:105e7000030578000300e000050035000b003c003e
:105e80000082700004027100300032000700370009
:105e900060001000e080180060011900e081190026
:105ea00002003b0001f02d00280037000004be0076
:105eb0000200be006011b8006b09200095022000ae
:105ec0000182cf000a0039000541b1000082cf00f5
